:020000040800F2
:100000001840002021020008F71C0008B118000861
:10001000F51C000837060008C32500080000000092
:10002000000000000000000000000000890100083E
:100030006908000800000000CD0100083125000813
:100040003B0200083B0200083B0200083B0200089C
:100050003B0200083B0200083B0200083B0200088C
:100060003B0200083B0200083B0200083B0200087C
:100070003B0200083B0200083B0200083B0200086C
:100080003B0200083B0200083B0200083B0200085C
:100090003B0200083B0200083B0200083B0200084C
:1000A0003B0200083B0200083B0200083B0200083C
:1000B0003B0200083B0200083B0200083B0200082C
:1000C0003B0200083B0200083B0200083B0200081C
:1000D0003B0200083B0200083B0200083B0200080C
:1000E0003B0200083B0200083B02000800F002F857
:1000F00000F03AF80AA090E8000C82448344AAF188
:100100000107DA4501D100F02FF8AFF2090EBAE885
:100110000F0013F0010F18BFFB1A43F0010318473B
:100120007C5300009C530000103A24BF78C878C16B
:10013000FAD8520724BF30C830C144BF04680C60ED
:10014000704700000023002400250026103A28BF35
:1001500078C1FBD8520728BF30C148BF0B60704739
:100160001FB51FBD10B510BD00F08AF91146FFF78D
:10017000F7FF02F037FA00F0A8F903B4FFF7F2FF37
:1001800003BC00F0A9F90000224B19680868B0E828
:10019000F00F80F30988BFF36F8F4FF0000080F3FA
:1001A00011884EF00D0E70470000000006480068F0
:1001B000006880F3088862B661B6BFF34F8FBFF363
:1001C0006F8F00DF00BF00BF08ED00E0EFF3098094
:1001D000BFF36F8F0F4B1A6820E9F00F106008B55E
:1001E0004FF0500080F31188BFF34F8FBFF36F8F34
:1001F00003F0FAF84FF0000080F31188BDE80840E2
:1002000019680868B0E8F00F80F30988BFF36F8FB2
:10021000704700BF18000020EFF305807047000012
:100220000948804709480047FEE7FEE7FEE7FEE78A
:10023000FEE7FEE7FEE7FEE7FEE7FEE704480549C6
:10024000054A064B70470000C1250008ED00000874
:10025000183A002018400020183C0020183C0020CC
:10026000032A40F2308010F0030C00F0158011F8E2
:10027000013BBCF1020F624498BF11F801CB00F8BA
:10028000013B38BF11F8013BA2F1040298BF00F80E
:1002900001CB38BF00F8013B11F0030300F0978059
:1002A000083AC0F0088051F8043B083A51F804CBF2
:1002B000A0E80810F5E7121D5CBF51F8043B40F8B8
:1002C000043BAFF30080D20724BF11F8013B11F8C3
:1002D00001CB48BF11F8012B24BF00F8013B00F807
:1002E00001CB48BF00F8012B704702F0FF0343EA3F
:1002F000032242EA024200F09EB84FF0000200B52D
:10030000134694469646203922BFA0E80C50A0E838
:100310000C50B1F12001BFF4F7AF090728BFA0E8E6
:100320000C5048BF0CC05DF804EB890028BF40F8B2
:10033000042B08BF704748BF20F8022B11F0804FF4
:1003400018BF00F8012B70474FF0013C50F8042B08
:1003500051F8043B9A4221D1A2EB0C03934313EAD8
:10036000CC1317D150F8042B51F8043B9A4215D105
:10037000A2EB0C03934313EACC130BD150F8042BDC
:1003800051F8043B9A4209D1A2EB0C03934313EAC0
:10039000CC13DBD04FF00000704700BFD01A01BA79
:1003A000B1FA81F101F0180122FA01F0CB40C1F15C
:1003B0002001DBB2C0B2C01A2CFA01F3D11A91436A
:1003C00011EAC311E6D1704770477047704710B506
:1003D000203AC0F00B80B1E81850203AA0E818503D
:1003E000B1E81850A0E81850BFF4F5AF5FEA027CFE
:1003F00024BFB1E81850A0E8185044BF18C918C06D
:10040000BDE810405FEA827C24BF51F8043B40F80D
:10041000043B08BF7047D20728BF31F8023B48BFF2
:1004200011F8012B28BF20F8023B48BF00F8012B30
:1004300070474FF000020429C0F0128010F0030C46
:100440003FF45DAFCCF1040CBCF1020F18BF00F813
:10045000012BA8BF20F8022BA1EB0C01FFF74FBF27
:100460005FEAC17C24BF00F8012B00F8012B48BFD4
:1004700000F8012B7047000000487047B439002095
:100480007546FFF7F9FFAE4605006946534620F072
:100490000700854618B020B5FFF7D0FEBDE8204024
:1004A0004FF000064FF000074FF000084FF0000B30
:1004B00021F00701AC46ACE8C009ACE8C009ACE8E3
:1004C000C009ACE8C0098D4670470446AFF3008010
:1004D0002046FFF752FE000001491820ABBEFEE7A0
:1004E000260002007047000070B50446006881686D
:1004F000C943C90717D1816821F00101816000F06B
:10050000DBFD05460AE000BF00F0D6FD401B0228D7
:1005100004D920688068C043C00706D0206880687E
:10052000C043C007F0D0002070BDA06A40F01000AA
:10053000A062E06A40F00100E062012070BD0000AE
:10054000F8B500260446009600688168C943C907CB
:100550002DD0816841F0010181601648164900687C
:10056000B0FBF1F000E0401E00900028FBD100F04D
:10057000A3FD054616E000BF00F09EFD401B0228CB
:1005800010D920688068C043C0070BD0A06A40F033
:100590001000A062E06A40F00100E06284F824608C
:1005A0000120F8BD20688068C043C007E4D1002066
:1005B000F8BD00001400002040420F0070B5040098
:1005C00009D001F041FA472001F002FA01F096FA51
:1005D00018B101F069FA012070BD01F0C5F90546B6
:1005E00001F068F901F0C0F9064601F093F901F055
:1005F0005BFA46EA052004F05BF9034904F05EF873
:100600002060002070BD00009A99993F10B501F05C
:100610004FFE01F019FA462001F0DAF901F06EFA06
:1006200018B1BDE8104001F03FBA102001F0D0F938
:1006300001F064FAF5E7FEE770B50024204600F00B
:100640003BF8134D04E0641CE4B2012000F0E0F834
:100650000121284600F026FD10B1642CF3D30FE0F1
:10066000642C0DD2002404E0641CE4B2012000F0EC
:10067000CFF80121284600F015FD18B1642C04D3F1
:10068000012070BD642CEFD3FAE7002070BD00009C
:100690000008014010B5012000F00EF801221146BB
:1006A000044800F004FD00F08BF8BDE81040FFF7AF
:1006B000C3BF00000008014000B585B000210191D2
:1006C000029103910A498A6942F004028A618969A8
:1006D00001F00401049101210091012802D10320BD
:1006E000019103906946034800F0ECFB05B000BDA2
:1006F000001002400008014070B50024134D04E0D2
:10070000641CE4B2012000F083F80121284600F0C7
:10071000C9FC08B1642CF3D3002404E0641CE4B2E7
:10072000012000F075F80121284600F0BBFC08B953
:10073000642CF3D3282000F06BF80121284600F048
:10074000B1FC002800D0012070BD0000000801406D
:1007500070B5002004464006050EFFF7CDFF641C6F
:100760002843E4B2082CF6D370BD00002DE9FC410B
:100770000D46064600F024F8FFF75EFFE8B90024B6
:100780004FEA0D07FFF7E4FF3855641CE4B2052C6F
:10079000F8D39DF800109DF801009DF803300A1869
:1007A0009DF8020003441A449DF804309A4204D193
:1007B000297030700020BDE8FC810120FBE70000BB
:1007C00010B50120FFF778FF094C002201212046D7
:1007D00000F06DFC142000F00DF8012211462046B7
:1007E00000F065FCBDE810400D2000F011B80000DD
:1007F0000008014070B5054600244FF47A7603E006
:10080000304600F005F8641CAC42F9D370BD00001E
:1008100004494A68044B1B6858434B689B1A83423F
:10082000FBD37047001000E09800002009480168E1
:1008300041F0807101600848016841F001010160E8
:1008400000214160054806490068B0FBF1F0054908
:1008500008607047FCED00E0001000E0140000208C
:1008600040420F0098000020704700003EB504464B
:1008700001F042FA0021062330A2084601F054FCA0
:10088000207A062538B100952278032300212820FC
:1008900001F026FC05E006232AA20021282001F011
:1008A00043FC062328A20821002001F03DFC207A09
:1008B00038B10095627803230821282001F010FC4C
:1008C00005E006231FA20821282001F02DFC0623A5
:1008D0001FA21021002001F027FC607A38B100959A
:1008E000A27803231021282001F0FAFB05E006235B
:1008F00014A21021282001F017FC062316A21821AB
:10090000002001F011FCA07A70B1606803F048FE8D
:1009100001220423CDE9003202460B46029518213C
:10092000282001F0FBFA05E0062306A21821282062
:1009300001F0FAFBBDE83E4001F064BC54656D7007
:100940003A0000004572720048756D203A000000C0
:10095000536F696C3A0000004C7578203A00000033
:10096000FEB501F0C9F90021062351A2084601F0A5
:10097000DBFB534C607800287ED052A2062308216E
:10098000002001F0D1FB082106234FA2084601F008
:10099000CBFB4B4D06260C3500962A780323082105
:1009A000382001F09DFB062349A208214A2001F0CE
:1009B000BBFB6078012874D042A2062310210020DE
:1009C00001F0B2FB062343A21021082001F0ACFB8A
:1009D00000966A7803231021382001F081FB06235A
:1009E0003EA210214A2001F09FFB607802285AD0D5
:1009F00034A206231821002001F096FB062338A21A
:100A00001821082001F090FB0096AA7803231821F2
:100A1000382001F065FB062330A218214A2001F09E
:100A200083FB6078032840D026A2062320210020E3
:100A300001F07AFB06232CA22021082001F074FB90
:100A4000686803F0ADFD01220423CDE900320246BF
:100A50000B4602962021382001F060FA062324A2DA
:100A60003021002001F060FB0096022362783021E3
:100A7000182001F0B2FA00E010E006231DA2302198
:100A80003C2001F051FB0096042330216020626875
:100A900001F026FBBDE8FE4001F0B4BB17A26DE7F4
:100AA000FFE716A289E715A2A3E714A2BDE700009D
:100AB0005468726573686F6C64205365740000003D
:100AC0009C0000202000000054656D703A0000007A
:100AD0004300000048756D3A00000000250000004A
:100AE000536F696C3A0000004C75783A00000000C2
:100AF00054483A004B6579733A0000003E0000000C
:100B000038B501F0F9F80021062315A2084601F0D6
:100B10000BFB062315A21021002001F005FB062384
:100B200016A23021002001F0FFFA154D0624009492
:100B300001232A783021182001F0D2FA062311A2CD
:100B400030213C2001F0F0FA009402236A78302131
:100B5000542001F042FABDE8384001F053BB0000D8
:100B60005769466920537461747573004E6F742021
:100B7000436F6E6E656374656400000050673A00F1
:100B80009C00002054483A0072B6FEE7F8B50024F5
:100B9000009490F824202546012A12D0012280F8E2
:100BA00024204A681F23072A0DD20668776B521E3D
:100BB00002EB820293409F430B6893401F4377638D
:100BC00019E00220F8BD06680D2A0AD2376BD21F41
:100BD00002EB820293409F430B6893401F433763AD
:100BE00009E0F76A0D3A02EB820293409F430B68DB
:100BF00093401F43F7620A68072306680A2A0AD34C
:100C0000F7680A3A02EB420293409F438B68934095
:100C10001F43F76008E0376902EB420293409F43AD
:100C20008B6893401F4337610A68102A01D0112A4C
:100C300020D1124B02689A4217D193681B0219D433
:100C4000936843F4000393600968102912D10C499A
:100C50000C4A0968B1FBF2F101EB8101490000E0A7
:100C6000491E00910029FBD104E0816A41F0200176
:100C70008162012480F824502046F8BD0024014000
:100C80001400002040420F000068C06C7047000054
:100C90002DE9F0414FF0000704003D467ED0A06AE8
:100CA000002628B9E66284F82460204600F07EF829
:100CB0002046FFF719FCA16A01F01001014304D09E
:100CC000A06A40F01000A06268E0A16A21F4885197
:100CD00041F00201A1626268E169237B0A4347EAAD
:100CE00043010A43A1684FF48077B94208D0012933
:100CF00006D0002194F814C0BCF1010F02D00AE024
:100D00003946F7E7F3B1A36A43F02003A362E36A2D
:100D100043F00103E3622368D3F804C02CF4694C68
:100D20004CEA010CC3F804C023689968DFF870C06E
:100D300001EA0C0111439960A168B9420BD0012965
:100D400009D00CE0DFF85CC0A3690CEB43330B4324
:100D500043F40061DFE7218A0D05A5F580152168C0
:100D6000CB6A23F470032B43CB62216889680E4B56
:100D70001940914208D1E662A16A21F0020141F0D6
:100D80000101A162BDE8F081A06A20F0020040F0FC
:100D90001000A062E06A40F00100E0620120F1E78B
:100DA000FDF7E1FF00E0FFFFFE0E1FFF00B585B07D
:100DB0000021009101910291039100680E4988423F
:100DC00018D10E48816941F400718161816901F493
:100DD00000710491816941F0040181618069694673
:100DE00000F00400049002200090032001900448C9
:100DF00000F068F805B000BD00240140001002407A
:100E00000008014070B5044690F8240001280DD078
:100E1000012084F824002046FFF792FB02004FF0E7
:100E2000000005D084F82400104670BD022070BD7B
:100E3000A16A40F20123994341F48071A1621F4DE0
:100E400023681F49AB4218D10E6816F4702F14D0D6
:100E5000A66A46F48016A6620E68760505D5A66ACF
:100E600026F4005646F48056A662A66AF6040AD511
:100E7000E66A26F00606E66206E0A66A26F4801612
:100E8000A6625E68E9E7E06284F824006FF0020081
:100E9000186020688368C3F34243072B05D1A8423A
:100EA00008D1096811F4702F04D0816841F48011D1
:100EB0008160B9E7816841F4A001F9E700280140A9
:100EC000042401402DE9F84FDFF8B8910024A9F17E
:100ED000040B23460F2709F1040AABF1040EC9E005
:100EE0000125A5402A40AA427DD1674ED1F804C011
:100EF000ACEB0608B44532D014DCBCF1030F3AD099
:100F000009DCBCF1000F2AD0BCF1010F1CD0BCF1F0
:100F1000020F31D11DE0BCF1110F17D0BCF1120F3F
:100F20002AD119E0B8F5881F19D006DCB8F5803F42
:100F300015D0B8F5801F1FD111E0B8F5001F0ED0F5
:100F4000B8F5041F18D10AE0CB6815E0CB681B1D6B
:100F500012E0CB6808330FE0CB680C330CE08B68F1
:100F60002BB1012B4FF0080303D0456104E00423AB
:100F700002E0056100E00023FF2A01D8064601E0F7
:100F800000F104064FEA840501D9A5F12005D6F841
:100F9000008007FA05FC28EA0C0803FA05F548EA80
:100FA0000508C6F800804D68ED0062D5374DAE6982
:100FB00046F00106AE61AD6924F0030605F00105B7
:100FC0000095334D06EB050CDCF80850A607360FEC
:100FD00007FA06F825EA0805DFF8B880404503D18E
:100FE0004FF0000817E044E0DFF8AC80404502D144
:100FF0004FF001080FE0DFF8A480404502D14FF028
:10100000020808E0DFF89880404502D14FF003085D
:1010100001E04FF0040808FA06F848EA0508CCF8A1
:1010200008804D68D9F80060ED024D4601D51643A1
:1010300000E096432E604D68DAF80060AD02554638
:1010400001D5164300E096432E604D68DBF8006042
:10105000AD035D4601D5164300E096432E604D6812
:10106000DEF80060ED03754601D5164300E09643B7
:101070002E60641C0D682A46E5407FF431AFBDE860
:10108000F88F000008040140000011100010024019
:101090000000014000080140000C01400010014028
:1010A000001401408068084000D0012070470AB158
:1010B000016170470904FBE7014880687047000040
:1010C000080000200248816802781144816070475E
:1010D00008000020074810B5016841F010010160C8
:1010E000032000F06DF80F2000F006F800F024F85F
:1010F000002010BD0020024070B50D4D04464FF495
:101100007A712878B1FBF0F00A490968B1FBF0F078
:1011100000F02AFB48B9102C07D200222146501EAD
:1011200000F02EF800206C6070BD012070BD000042
:1011300008000020140000200F4808B5816941F024
:1011400001018161816901F001010091C16941F0F2
:101150008051C161C069002200F0805000900F21D1
:10116000901E00F00DF80548416821F0E06141F063
:101170000071416008BD0000001002400000014005
:10118000F0B40E4B1B680C46C3F30223C3F10705F2
:10119000042D00D90425191D072901D2002300E0E0
:1011A000DB1E012606FA05F1491E214099409E40AA
:1011B000761E16403143F0BC01F004BA0CED00E09D
:1011C000064900F0070208684FF6FF03184040EA9E
:1011D0000220034A10430860704700000CED00E055
:1011E0000000FA052DE9F84305460078354CC007A4
:1011F00054D0E0690026C00008D4E06940F0805077
:10120000E061E069012600F0805000902E480168FE
:10121000C90512D40168804641F480710160FFF76E
:101220004BFF074605E000BFFFF746FFC01B6428E1
:1012300023D8D8F80000C005F6D5206A10F4407015
:1012400021D0A98801F4407181421CD0206A1F4935
:10125000012220F440700A6000220A602062C00768
:1012600011D0FFF729FF074641F2883808E000BF98
:10127000FFF722FFC11B414502D90320BDE8F883D7
:10128000206A8007F4D5206A696820F4407008431A
:1012900020621EB1E06920F08050E061287880076C
:1012A00005D56068A96820F440400843606028784C
:1012B000C00605D56068E96820F4800008436060D6
:1012C0000020DBE700100240007000404004424272
:1012D0002DE9F0470F46050061D0434E306800F01D
:1012E0000700B84209D2306820F007003843306068
:1012F000306800F00700B84251D128683B4C8107A4
:1013000012D5400703D5606840F4E060606028783B
:10131000000703D5606840F4605060606068A968A9
:1013200020F0F000084360602878C00728D0686883
:10133000012810D02168022810D0890700292EDA50
:10134000616821F0030101436160FFF7B5FE80464B
:1013500041F288390DE021688903EFE78901EDE763
:10136000FFF7AAFEA0EB0801494502D90320BDE81A
:10137000F0876068696800F00C00B0EB810FEFD176
:10138000306800F00700B8420BD9306820F0070041
:1013900038433060306800F00700B84201D00120C7
:1013A000E5E72878400705D56068E96820F4E06043
:1013B000084360602878000706D56068296920F432
:1013C000605040EAC100606000F018F86168084AA7
:1013D000C1F30311515CC840064908600648006823
:1013E000FFF78AFE0020C2E7002002400010024002
:1013F0006C4B0008140000200C0000200E4A5168BD
:101400000E4801F00C03042B11D0082B0FD10C480F
:10141000C1F38343C903C05C0AD55168084AC1F3CC
:101420004041921E515C054A5043B0FBF1F07047B9
:1014300004494843704700000010024000127A003F
:101440005C4B000800093D002DE9F84F040070D006
:101450002078C04DC00749D06868C0F381000128DA
:1014600007D06868C0F38100022809D16868C0030A
:1014700006D52868800339D560680028E7D035E0B4
:101480006068B0F5803F0BD010B1B0F5A02F11D03F
:10149000286820F480302860286820F4802002E04A
:1014A000286840F480302860606890B1FFF704FE3F
:1014B00006460AE0286840F480202860F0E700BF74
:1014C000FFF7FAFD801B642873D828688003F7D5DE
:1014D0000CE0FFF7F1FD064605E000BFFFF7ECFD6D
:1014E000801B6428F0D828688003F7D420789A4EAF
:1014F00080074FF001094FF0000839D5686810F0F7
:101500000C0F07D06868C0F38100022809D1686811
:10151000C00306D42868800714D52069012808D1A3
:1015200010E02069B0B1C6F80090FFF7C5FD07468E
:1015300005E00AE1FFF7C0FDC01B0228C4D82868F7
:101540008007F7D52868616920F0F80040EAC100FB
:1015500028600DE0C6F80080FFF7AEFD074604E006
:10156000FFF7AAFDC01B022823D828688007F7D4FC
:10157000207800072CD57948A169D9B1C0F800902E
:10158000FFF79AFD074604E0FFF796FDC01B02280F
:101590000FD8686A8007F7D571484FF4FA51006890
:1015A000B0FBF1F0009000BF0098411E0091FAD20C
:1015B0000EE080E0C0F80080FFF77EFD074604E003
:1015C000FFF77AFDC01B022875D8686A8007F7D438
:1015D0002078400760D5E8690027C00008D4E86992
:1015E00040F08050E861E869012700F080500090E9
:1015F0005C480168C90513D40168834641F48071D1
:101600000160FFF759FD824606E000BFFFF754FD79
:10161000A0EB0A0064284ED8DBF80000C005F5D521
:10162000E06801280AD008B1052813D0286A20F004
:1016300001002862286A20F0040002E0286A40F0D5
:1016400001002862E06841F2883B98B1FFF734FD61
:1016500082460BE0286A40F004002862EEE700BFF3
:10166000FFF72AFDA0EB0A0159455AD8286A8007DE
:10167000F6D50CE0FFF720FD824605E0FFF71CFDE4
:10168000A0EB0A0159454CD8286A8007F6D41FB14F
:10169000E86920F08050E861E06988B36968C1F3C7
:1016A0008101022944D00228C6F8608004D0FFF7E7
:1016B00003FD044638E034E0FFF7FEFC074604E093
:1016C000FFF7FAFCC01B02282BD828688001F7D44A
:1016D000206AB0F5803F05D16868A16820F4003029
:1016E00008436860D4E908010843696821F474116B
:1016F00008436860C6F86090FFF7DEFC044606E029
:1017000025E000BFFFF7D8FC001B022809D8286895
:101710008001F7D51BE000BFFFF7CEFC001B0228BD
:1017200002D90320BDE8F88F28688001F4D40EE0C8
:101730000128F7D06868226A00F48031914204D110
:10174000616A00F47010884201D00120EAE70020AD
:10175000E8E70000001002400000424280044242DC
:10176000140000200070004010B5401EB0F1807FD2
:1017700001D3012010BD4FF0E02460610F216017FC
:1017800000F020FF0020A06107202061002010BD94
:1017900070B5444C06466068401C606020780128A3
:1017A00020D1022E1ED16078FF2804D0032816D243
:1017B000401C607016E002F097F9A168411AB1F57B
:1017C000FA7F02D2A178491C00E00121A170A0603B
:1017D000C8B2022806D300206070A07070BDFF2040
:1017E000607070BD6278FF2A2FD02E4D2E490C35C7
:1017F00026B1FF2A29D0012E1ED024E032B1012AC1
:1018000009D0022A0CD0032A0FD01CE028783228F5
:10181000E7D2401C28E068785A28E2D2401C29E030
:10182000A8785A28DDD2401C2AE0204A68689042F5
:10183000D7DA02F0E1FE2BE092B1012A16D0022A9B
:101840001AD0032A1ED0FF2ACBD11EB3012EC8D135
:1018500020780321401CB0FBF1F201FB12001CE0D8
:1018600028780028BDD0401E287070BD68780028F8
:10187000FBD0401E687070BDA8780028FBD0401EC9
:10188000A87070BD6868B0F5000FFADB03F0F0F8DF
:10189000686070BD207810B1401E207070BD0220BD
:1018A000FBE700009C0000200000204100FF7F4774
:1018B000FEE700007FB5002002904FF40054112095
:1018C000CDE900400320124D039069462846FFF7FA
:1018D000F9FA002221462846FFF7E9FB0520FEF72A
:1018E00097FF0122160331462846FFF7E0FB05204B
:1018F000FEF78EFF002231462846FFF7D8FB04B0E2
:1019000021462846BDE870400122FFF7D0BB000009
:10191000000C01407FB5002002904FF400541120CC
:10192000CDE9004003200F4D039069462846FFF79C
:10193000C9FA012221462846FFF7B9FB0520FEF728
:1019400067FF0122140321462846FFF7B0FB05205C
:10195000FEF75EFF04B021462846BDE87040002235
:10196000FFF7A5BB000C01402DE9FF410024174EF5
:101970004FF400570194029469463046009703944F
:10198000FFF7A0FA0025B846B714012239463046C1
:10199000FFF78DFB0520FEF73BFF6006040E414676
:1019A0003046FFF77FFB08B144F0010400223946BE
:1019B0003046FFF77CFB0520FEF72AFF6D1CEDB2D9
:1019C000082DE2D304B02046BDE8F081000C0140B0
:1019D0002DE9FF410546002002904FF400571120E9
:1019E000CDE900700320174E039069463046FFF79B
:1019F00069FA0024B846B714002239463046FFF78A
:101A000056FB280601D5012200E00022414630465F
:101A1000FFF74DFB0520FEF7FBFE0122394630465D
:101A2000FFF745FB0520FEF7F3FE0022394630465E
:101A3000FFF73DFB6806641C050EE4B2082CDBD3FF
:101A4000BDE8FF81000C01407FB5002002904FF4FB
:101A500000541120CDE900400320124D0390694647
:101A60002846FFF72FFA012221462846FFF71FFBE1
:101A70000122160331462846FFF719FB0520FEF721
:101A8000C7FE002221462846FFF711FB0520FEF77E
:101A9000BFFE04B031462846BDE870400022FFF783
:101AA00006BB0000000C01407FB5002002904FF4FF
:101AB00000541120CDE9004003200F4D03906946EA
:101AC0002846FFF7FFF9002221462846FFF7EFFAE4
:101AD000012211032846FFF7EAFA0520FEF798FED7
:101AE000012221462846FFF7E2FA04B00520BDE8AE
:101AF0007040FEF78DBE0000000C01402DE9FF4153
:101B00000024164E4FF40055019402946946304665
:101B100000950394FFF7D6F90122170339463046A2
:101B2000FFF7C5FA0520FEF773FE09E0641CE4B276
:101B3000FA2C05D9FFF7B8FF012004B0BDE8F08109
:101B400029463046FFF7AEFA0028EFD10022394689
:101B50003046FFF7ACFA0020EFE70000000C014030
:101B60003EB500211148009101910F4A0291026097
:101B700001248160047301754FF460220461C26125
:101B80004160FFF785F808B1FEF7FEFF07200094DB
:101B9000CDE9014069460548FEF7F8FF002801D06D
:101BA000FEF7F2FF3EBD000000240140B00000201F
:101BB0007CB500220C21052001F0B2FC1249002264
:101BC000086001210A2001F0ABFC1049002418250F
:101BD0000860CDE900544FF48076234632460CA1CC
:101BE0000D4801F01BFFCDE90054002380220BA11A
:101BF0000C4801F013FFCDE90054002332460AA13E
:101C00000B4801F00BFF7CBD000000200400002009
:101C100053656E736F720000B1240008496E7075D1
:101C2000740000001D240008446973706C61790021
:101C3000852300082DE9F0418AB000242A48009449
:101C4000019402940394816941F0100181618169DA
:101C500001F010010891816941F0200181618169E1
:101C600001F020010891816941F0040181618169DD
:101C700001F004010891816941F0080181618069E6
:101C8000012200F00800194F5503089029463846F4
:101C9000FFF70DFADFF858804FF440760122314605
:101CA0004046FFF704FA0220CDE9024000951125D5
:101CB000694601953846FFF705F90320CDE9024052
:101CC000CDE9006569464046FFF7FCF80B20CDE9F9
:101CD00004040120CDE9060404A94046FFF7F2F808
:101CE0000AB0BDE8F0810000001002400010014081
:101CF000000C0140FEE7FEE710B50021074C0A4644
:101D0000002004EBC1131A54401CC0B28028FAD33F
:101D1000491CC9B20829F3D310BD0000B435002016
:101D2000F0B50B4424E0044685181DE07F2C19D83B
:101D3000002917DB3F2915DCCE1701EB56764FEA59
:101D4000E60C0D4F26F0070607EBCC172744A1EB56
:101D5000060E97F800C0012606FA0EF62CEA060CCD
:101D600087F800C0641C24B2A542DFDC491C09B21C
:101D70008B42D8DCF0BD0000B435002010B5002047
:101D80004FF47A720021491C9142FCD3401C9042CE
:101D9000F8D3012000F04AFABDE81040012000F01D
:101DA00051BA70B500240646802525FA04F030406B
:101DB00000D0012000F046FA012000F037FA0020A0
:101DC00000F034FA641CE4B2082CEED3012000F0D9
:101DD0002DFABDE87040002000F028BA10B50120AF
:101DE00000F030FA012000F021FA002000F02AFA79
:101DF000BDE81040002000F019BA10B5002000F036
:101E000021FA012000F012FABDE81040012000F094
:101E100019BA10B5FFF7B2FFAE2000F01FFAD520B7
:101E200000F01CFA802000F019FAA82000F016FA41
:101E30003F2000F013FAD32000F010FA002000F049
:101E40000DFA402000F00AFAA12000F007FAC8209D
:101E500000F004FADA2000F001FA122000F0FEF996
:101E6000812000F0FBF9CF2000F0F8F9D92000F034
:101E7000F5F9F12000F0F2F9DB2000F0EFF9302065
:101E800000F0ECF9A42000F0E9F9A62000F0E6F952
:101E90008D2000F0E3F9142000F0E0F9AF2000F00D
:101EA000DDF9FFF729FFBDE8104000F0ABB90246AD
:101EB000012000E05043491EFCD2704710B50C468B
:101EC00040F0B00000F0CAF9102040EA141000F011
:101ED000C5F904F00F00BDE8104000F0BFB90000E4
:101EE00008B5082B0DD0062B0AD10A4B02EB420293
:101EF00003EB4202C03A00920823062200F092F857
:101F000008BD054B03EB0212A2F5007210230092EC
:101F10000822F3E76C5100087C4B00082DE9FF5FB5
:101F200082B014461D46DDE911B60746002213466D
:101F300020462946DDF8408002F0ACF9334605D84A
:101F40002B2238460399FFF7CBFF06E02D223846B7
:101F50000399FFF7C5FF85F000452046294602F0AA
:101F60001FF8824602F049F822462B4602F022FA78
:101F700005460C4659460A20FFF799FF814602F0B4
:101F80003CF82A46234602F087F800F0B5FF02F03D
:101F900007F8B0FBF9F1044601EB0A02B81900B2E8
:101FA00043460096039900F09BF808F1010000FBFE
:101FB000067000B233462E220399FFF791FF08F115
:101FC000020000FB067000B25B46224600960399B1
:101FD00000F086F806B0BDE8F09F2DE9F0431D46FD
:101FE0009046894607460024079E16E0291B1020CC
:101FF000491EFFF75CFFB8FBF0F000F00F0204FB96
:1020000006700A2A00B23346494601D2303200E057
:102010003732FFF765FF641CE4B2AC42E6D3BDE89B
:10202000F08300002DE9F04F1F4616460D4682460C
:102030000024FFF775FE7F1EF81707EB5070012193
:10204000DFF898B001EBE00743E000203DE000BF7F
:102050000AEB00037F2B36D8E91705EB5171CA1044
:1020600021F00701691A002D03DA521E083112B25D
:1020700009B202EB0409B9F1070F0ED8099A04FB63
:1020800006F802440BEBC91E18F802201EF803C024
:102090008A404CEA020C0EF803C009F10102072A3B
:1020A00011D80BEBC91202EB0308099A04FB06FCDA
:1020B000024498F880301CF80220C1F10801CA409F
:1020C000134388F88030401CC0B2B042C0D3641CB7
:1020D000E4B2A742B9DCBDE8F08F0000B4350020BF
:1020E0002DE9F04700241D4690468A4681460A277E
:1020F000089E14E0291B0A20491EFFF7D8FEB8FBF2
:10210000F0F0B0FBF7F107FB110204FB069000B200
:10211000334651463032FFF7E3FE641CE4B2AC4272
:10212000E8D3BDE8F08700002DE9FF4F002583B01C
:102130009B4690462C46AA46DFF8C09056E0100613
:102140008DF8042005F101050DD40398ADB22044AB
:102150008DF805A000B25B460499FFF7C1FE04EBC1
:102160000B0084B242E0A8B218F80010002941D058
:10217000401C8DF8051085B28DF806A0002606E0FB
:10218000384601A9FEF7E0F868B1761CB6B2C6EB96
:10219000C60000EB800101EB0900074618A1FEF71D
:1021A000D3F80028ECD1BBF1080F03D0BBF1060F28
:1021B0001CD111E0C6EBC60000EB800101EB090069
:1021C000C01C009003981023204400B21A460499C2
:1021D000FFF728FF103408E003980623204400B2DC
:1021E0003F220499FFF77CFEA41DA4B218F8052035
:1021F000002AA4D107B0BDE8F08F0000A653000864
:102200000000000070B5084D002400212046FFF7B3
:1022100055FE05EBC410802100F031F8641CE4B2D7
:10222000082CF2D370BD0000B4350020044B4FF4ED
:10223000807108B1012200E000221846FEF737BF86
:10224000000C0140044B4FF4007108B1012200E082
:1022500000221846FEF72BBF000C014010B50446C3
:10226000FFF7BCFD7820FFF79CFD0020FFF799FDEC
:102270002046FFF796FDBDE81040FFF7BEBD70B5E4
:102280000D460646FFF7AAFD7820FFF78AFD40209D
:10229000FFF787FD002404E0305DFFF782FD641C3A
:1022A000E4B2AC42F8D3BDE87040FFF7A6BD000031
:1022B00010B586B0002002901048816941F00801F5
:1022C000816180690E4C00F0080004904FF440508A
:1022D0000090112001900320039069462046FEF7EC
:1022E000F1FD012211032046FEF7E1FE0122510318
:1022F0002046FEF7DCFE06B010BD000000100240D4
:10230000000C01400148FEF77DBD0000B000002038
:102310002DE9F041040016D0002635464FF47A77B7
:102320001548FEF7B1FC06443846FEF771FA6D1CFD
:10233000EDB2102DF4D3C6F30F1040F61C418842C5
:1023400004D3002014E00120BDE8F081B0F5487FFF
:1023500001D864200CE0A0F61C40404202F090FA44
:10236000064902F0ABF9064902F0B6FA02F068FA43
:1023700020700020E8E70000B000002000C00F45FA
:102380000000C8421FB50024FFF743FD00210623CB
:102390001BA20846FFF7C8FEFFF734FF4FF4FA70A0
:1023A00000F028FF1A4D1B4E1B4F0022694628687B
:1023B00001F05EFA012800D10124002203A930684F
:1023C00001F056FA012807D0ACB1387848B101289D
:1023D0000BD002280ED10BE09DF80C00FFF7D8F9C6
:1023E000F3E76846FEF742FA04E0FEF7B9FA01E0C7
:1023F000FEF786FB0024142000F0FCFED5E7000069
:1024000053797374656D2052656164790000000032
:1024100000000020040000209C0000201CB50025C6
:1024200001F062FB204F214E00900024012138462C
:10243000FEF738FE00B9012402213846FEF732FECD
:1024400008B944F0020408213846FEF72BFE08B90B
:1024500044F0040424EA0505E80708D000208DF8BC
:1024600004000346024601A9306801F0F1F8A8070C
:1024700008D501208DF8040000231A4601A9306810
:1024800001F0E6F8680708D502208DF80400002363
:102490001A4601A9306801F0DBF825460F2168468D
:1024A00000F0CEFEC1E70000000C01400400002057
:1024B0000EB54FF4FA67384600F09CFEFEF7EAF8D6
:1024C000FEF7A4F8FFF71EFFB8460125174F6C462C
:1024D000002600BF00F080FF611C6846FEF746F949
:1024E000D0B18DF80860201DFEF768F8B8B18DF8FE
:1024F0000A6000BF01F0DAFBA01CFFF709FF88B1FA
:102500008DF8096000231A466946386801F0A0F882
:10251000404600F06FFEDDE78DF80850E3E78DF8E8
:102520000A50E7E78DF80950ECE7000000000020B2
:1025300010B5FEF7C7FD01F0C9FA012803D0BDE8C8
:10254000104000F0D7BF10BD30B593B028216846C9
:10255000FDF7D3FE14210AA8FDF7CFFE00250120C8
:102560000F9510951195010412958DE823000490A4
:102570004FF4E010CDE90810022407946846FEF7F6
:1025800063FF08B172B6FEE70AA90F2081E83100A7
:102590004FF48060CDE90D0502210AA8FEF798FEF0
:1025A00008B172B6FEE74FF4004011900F940FA8E7
:1025B000FEF718FE002801D072B6FEE713B030BD5A
:1025C0007047FEE70907090E002804DB00F1E02050
:1025D00080F80014704700F00F0000F1E02080F850
:1025E000141D7047FEF776FDFFF7AEFFFFF722FBE5
:1025F000FFF7B6FAFEF71AF900F006F8FFF7D8FA77
:1026000000F014F8FEE70000EFF3058010B16FF062
:10261000050070470448016811B14FF0FF30704762
:1026200001210160002070476800002010B5EFF321
:10263000058010B16FF0050010BD08480168012940
:1026400002D04FF0FF3010BD054A002182F8141D62
:102650000221016000F07CFE002010BD6800002017
:102660000BE000E02DE9F041134C0F460546E6680B
:102670002068001D00F08AFC681C07D137B1216872
:10268000BDE8F0410D48091D00F0D0BC206835447C
:10269000B5424560216805D2A06BBDE8F041091D37
:1026A00000F0ACBC606B091D00F0A8FCA06A85427C
:1026B00000D2A562BDE8F08118000020D0050020FE
:1026C0002DE9F041054600F0BDFC2D4CA068401CF2
:1026D000A06020682B4F10B1606930B32BE02560FB
:1026E000A068012827D1002606EB860007EB8000B2
:1026F00000F076FC761C382EF6D3234800F070FCF0
:102700002148143000F06CFC1F48283000F068FCB1
:102710001D483C3000F064FC1B48503000F060FC69
:10272000194860631430A06305E02068E96AC06A54
:10273000884200D82560606A401C60626864E86A6C
:102740002169884200D9206100EB800007EB8000FE
:10275000291D00F06BFC00F095FC606900280CD08E
:102760002068E96AC06A884207D208494FF0805061
:102770000860BFF34F8FBFF36F8FBDE8F08100009B
:1027800018000020200100208005002004ED00E05A
:1027900038B500F057FC104C2068C8B90F4800F05D
:1027A0001FFC0E48143000F01BFC0C48E060143095
:1027B00020610A4B0020F03B009003F150021021F1
:1027C0000A2000F0CEFE206010B105A100F0DCFC74
:1027D000BDE8384000F056BC54000020D40600206C
:1027E000546D72510000000030B4026C0B46002A98
:1027F0000BD0C1681144C1608468A14201D3016853
:10280000C16030BC1846FDF72BBD30BC70472DE9C8
:10281000F041856B174604460026026C82B1C7B1B1
:10282000E068FDF71DFDE168206C091AE16022688F
:10283000914202D2A168081AE060022F16D017E078
:102840002068A8B9A06801F0B9F906460020A06088
:102850000EE06068FDF704FD216C6068084460606C
:10286000A168884204D32068606001E005B16D1E54
:102870006D1CA5633046BDE8F08110B5044690F8A4
:10288000590058B101280CD002280FD0502080F3F5
:102890001188BFF34F8FBFF36F8FFEE7206B00F0FF
:1028A00005FC2046BDE8104000F000BC10BD000053
:1028B00010484FF42051420706D0C01D0D4920F0AA
:1028C0000700411AC1F520510B4A00230144C2E917
:1028D00000030839183A21F0070111604B600B60C2
:1028E0000B1AC0E9001393604FF000405360506131
:1028F00070470000B40D002084000020144E154CD9
:10290000A6F29C474FF08058DFF84C9012E000BFD1
:1029100000F098FBF068C568281D00F037FBA06840
:10292000401EA0606068401E606000F0ABFB28465F
:10293000FFF7A3FF60680028EAD138680128F9D9B9
:10294000C9F80080BFF34F8FBFF36F8FF2E700002D
:10295000BC0500201800002004ED00E070B51D4605
:10296000049C51B1C4F80020C4E90F0101212046A4
:1029700000F02AFE84F84C5070BD2460F4E700009B
:102980002DE9F05F8846DDE90B94154683469100FA
:102990009A460A9EA522206BFDF7A7FC6FF0030163
:1029A000206B01EB8501084420F00707780707D06A
:1029B000502080F31188BFF34F8FBFF36F8FFEE776
:1029C0000025B8F1000F0FD05FF00000221818F8B2
:1029D000001082F8341018F8001011B1401C1028B3
:1029E000F4D384F8435001E084F83450382E00D3F7
:1029F0003726E662C4E91365201D00F0FCFA04F1F5
:102A0000180000F0F8FA2461C6F138006462A06191
:102A1000656584F8585052465946384600F05AFACF
:102A20002060B9F1000F01D0C9F80040BDE8F09F67
:102A300030B5114900E011460A688242FBD34B6869
:102A40005C18844203D140681844486008464368D3
:102A50001C18944209D1084C183C2468A24209D0A1
:102A600052681A4442600A6812680260814200D0CB
:102A7000086030BD0460F9E78400002070B50024D0
:102A800041600B4D0061914206D8D11A8269914292
:102A900006D2011D286907E09A4203D2994201D368
:102AA000012403E0011DE86800F0A8FA204670BD8B
:102AB0005400002010B5044600F0C4FAA06B28B101
:102AC0005FF0000400F0DEFA204610BD0124F9E7B3
:102AD00030B589B03C4D6EE00498002806DADDE997
:102AE0000601059A90470498002864DB069C6069FB
:102AF00010B1201D00F04AFA03A800F0D7F80246F2
:102B000004980A2857D2DFE800F00505052D334A5E
:102B100005052D3394F8280040F0010084F82800C2
:102B20000599A069059B01442046FFF7A7FF68B3FC
:102B3000216A2046884794F8280040073BD50020AA
:102B400000900598A169002342181946204601F01B
:102B50003FF9D8B9502080F31188BFF34F8FBFF3EE
:102B60006F8FFEE714F8280F20F00100207022E09C
:102B700094F8280040F0010084F828000598A0612E
:102B800028B1811813462046FFF778FF13E0502044
:102B900080F31188BFF34F8FBFF36F8FFEE794F878
:102BA0002800810703D4204600F080FA03E020F0DB
:102BB000010084F82800002204A9286800F058FECB
:102BC000002889D109B030BD540000202DE9FC4116
:102BD0000F46054600F000FC01A800F067F8044627
:102BE000019818B101F062F8BDE8FC81254EAFB143
:102BF00030690068D0B30027291B3A46306800F0DE
:102C0000D7FA01F053F80028EED11F494FF0805059
:102C10000860BFF34F8FBFF36F8FE5E7A542EBD896
:102C200001F044F8F0682746C068C468201D00F031
:102C3000ADF994F82800410719D5A0692B46411930
:102C40003A462046FFF71AFFA8B100200346014686
:102C500000902A46204601F0BBF860B9502080F36E
:102C60001188BFF34F8FBFF36F8FFEE707E020F0AF
:102C7000010084F82800216A20468847B4E701272C
:102C8000BAE700005400002004ED00E00648416B64
:102C9000096829B1416BC968C96849688162704790
:102CA0004FF0FF31FAE700001800002070B505462C
:102CB00000F01AFF064E0446B068844203D200F0CA
:102CC00009F8012000E0002028602046B46070BDB3
:102CD00054000020F8B5194D20E0C068C4680668AB
:102CE000201D00F053F9216A2046884794F82800F7
:102CF000400713D5A0693044B04206D92461606012
:102D0000211DE86800F07AF908E00020034601463A
:102D100000903246204601F05BF838B1E86801685F
:102D20000029DAD12969C5E90310F8BD502080F3E4
:102D30001188BFF34F8FBFF36F8FFEE75400002061
:102D400008484068401C4FF0500080F3118804D0C0
:102D5000BFF34F8FBFF36F8FFEE7BFF34F8FBFF30C
:102D60006F8FFEE78C000020074CE068016841B1DE
:102D7000C0680021D0F80000FFF728FFFFF7A8FE89
:102D8000F3E701210020F7E7540000202DE9F0418E
:102D9000044600F057F994F9455004F1240609E07F
:102DA000606A48B1304600F049FF08B100F096FA79
:102DB0006D1E6DB2002DF3DC4FF0FF3684F84560D8
:102DC00000F060F900F03EF994F9445004F1100766
:102DD00009E0206948B1384600F030FF08B100F042
:102DE0007DFA6D1E6DB2002DF3DC84F84460BDE801
:102DF000F04100F047B900002DE9F04105460027F9
:102E000000F0EAFA324E306808B9FFF751FD7069F8
:102E100005424ED1C5B3083568070ED005F007004E
:102E2000C0F108000544680707D0502080F31188DE
:102E3000BFF34F8FBFF36F8FFEE72DB370688542EE
:102E400037D82348183001460C6801E020460C466C
:102E50006168A94202D221680029F7D131688C4209
:102E600027D007682168016060680837411B102976
:102E70000FD96019420708D0502080F31188BFF3A2
:102E80004F8FBFF36F8FFEE713E041606560FFF780
:102E9000CFFD61687068401A7060B268904200D2DD
:102EA000B060706901430020C4E90001F068401C73
:102EB000F06000F0FBFE780707D0502080F3118807
:102EC000BFF34F8FBFF36F8FFEE73846BDE8F08149
:102ED0006C00002010B5031F4FF080741C601B1F96
:102EE00021F001011960191F024B0B6014394038A1
:102EF0000A6010BD412D00082DE9F04D07460E4631
:102F000001F0FEF904460D463A46334601F052FA06
:102F1000DFF86CA0DFF86CB01B4B0746884616F054
:102F2000004F4FF000020AD001F07AF80AD90022CF
:102F30005B463846414601F0ADF91BD212E001F084
:102F40006FF808D2002253462046294601F03EFA87
:102F500004460D460EE000225B463846414601F02D
:102F600099F907D8002253462046294600F064FF0D
:102F700004460D463146204665F31E01BDE8F08D3E
:102F80000000F03F0000E03F0000E0BFD0E9013268
:102F900001699A60D0E901235A604A68824201D1EE
:102FA00082684A60002202610868401E0860086862
:102FB00070470000034B036003F15C000860802051
:102FC00010607047FC060020044B036003F15C00B6
:102FD00008604FF4807010607047000058090020AE
:102FE00000F108014FF0FF32C0E90112C160016138
:102FF00000210160704700210161704730B50B6806
:103000005A1C02D000F1080202E0026904E02246E4
:10301000546825689D42FAD953684B6099608A606C
:10302000516008610168491C016030BD42684A6016
:1030300093688B6093685960916008610168491CCE
:1030400001607047502080F31188BFF34F8FBFF3AA
:103050006F8F0A494868401C486001280CD1084815
:10306000006810F0FF0F07D0502080F31188BFF3E5
:103070004F8FBFF36F8FFEE7704700008C0000207A
:1030800004ED00E00849486828B1401E486001D1BD
:1030900080F311887047502080F31188BFF34F8F61
:1030A000BFF36F8FFEE700008C00002070B5002892
:1030B0002AD0164DA0F1080460686969084207D15A
:1030C000502080F31188BFF34F8FBFF36F8FFEE75F
:1030D00022683AB1502080F31188BFF34F8FBFF3BD
:1030E0006F8FFEE78843606000F076F9606869687A
:1030F000084468602046FFF79BFC2869401C286153
:10310000BDE8704000F0D2BD70BD00006C00002032
:103110004FF0E02000210161816105494FF47A728E
:103120000968B1FBF2F1491E416107210161704755
:103130001400002010B5FDF76FF8114910280ED3C8
:1031400000F1E02090F8F0030A78904207D2502076
:1031500080F31188BFF34F8FBFF36F8FFEE70948ED
:103160000068896800F4E060884207D9502080F345
:103170001188BFF34F8FBFF36F8FFEE710BD0000C4
:103180008C0000200CED00E010B5084B002200BFC1
:1031900053F832401CB1521C082AF9D310BD43F831
:1031A000321003EBC201486010BD0000E0000020B7
:1031B00070B515460E460446FFF744FF94F94410D7
:1031C0000020491C01D184F8440094F94510491CA1
:1031D00001D184F84500FFF755FFA06B28B92A46B6
:1031E000314604F1240000F097F82046BDE8704015
:1031F000FFF7CCBD10B5020014D00F48006B38B1FA
:10320000502080F31188BFF34F8FBFF36F8FFEE71D
:1032100000F0E2F800211046FFF724FA00F046FD26
:10322000002807D105494FF080500860BFF34F8F49
:10323000BFF36F8F10BD00001800002004ED00E008
:1032400070B50D4604000BD095B11E4A106BB8B195
:10325000502080F31188BFF34F8FBFF36F8FFEE7CD
:10326000502080F31188BFF34F8FBFF36F8FFEE7BD
:10327000502080F31188BFF34F8FBFF36F8FFEE7AD
:1032800000F0AAF8D26823685919934204D98B42F6
:103290000AD9914202D807E08B42FAD9881A2160F4
:1032A0000021FFF7DFF900E0216000F0FFFC0028BB
:1032B00007D105494FF080500860BFF34F8FBFF32F
:1032C0006F8F70BD1800002004ED00E002490A6A0B
:1032D0000260C96841607047180000200149012060
:1032E000C86170471800002010B50C4650B109495C
:1032F00009681831FFF782FE2046BDE81040012121
:10330000FFF7B0B9502080F31188BFF34F8FBFF3A0
:103310006F8FFEE71800002070B514460D4668B1A7
:103320000A4909681831FFF781FE0CB14FF0FF35EB
:1033300021462846BDE87040FFF794B9502080F33D
:103340001188BFF34F8FBFF36F8FFEE71800002087
:1033500030B587B00024039405AA04A903A80494F7
:10336000FFF728FEDDE903010094CDE901100023F9
:1033700015A11748059A00F07EFB164D0028E8625B
:103380001FD000F0F5FC012809D0401C19D15020B5
:1033900080F31188BFF34F8FBFF36F8FFEE750208C
:1033A00080F31188BFF34F8FBFF36F8F4FF0FF3063
:1033B000A86201206861EC6007B0BDE8304000F011
:1033C00045B807B030BD000049444C45000000003E
:1033D000FD280008180000200248016B491C016309
:1033E0007047000018000020164810B5016B11B19D
:1033F0000121C16110BD0021C1610169124A01E0D2
:10340000B9B1491E01EB810352F82330002BF7D0EC
:1034100001EB810302EB830202F1080453685B684D
:103420005360A34201D15B685360DA6802600161B6
:1034300010BD502080F31188BFF34F8FBFF36F8F03
:10344000FEE7000018000020200100201CB52649DE
:1034500008780190FF20087008788DF800009DF82A
:1034600000009DF8002000F0F000904207D05020AE
:1034700080F31188BFF34F8FBFF36F8FFEE79DF886
:1034800000001A4C00F0500020700720A06005E0FA
:103490009DF8002052008DF80020401E9DF800206D
:1034A0001206F5D4A060032807D0502080F31188BD
:1034B000BFF34F8FBFF36F8FFEE74FF44070A060F4
:1034C000019808700A48016841F4700101600168C0
:1034D00041F070410160FFF71BFE00206060FCF7C7
:1034E00065FE00201CBD000000E400E08C00002010
:1034F00020ED00E010B5502080F31188BFF34F8F0E
:10350000BFF36F8F00F0F6FA18B104494FF0805006
:103510000860002080F3118810BD000004ED00E079
:10352000F8B517460E46050013D005FB06F05030DF
:10353000FFF762FC04000AD0002084F8460004F182
:1035400050023B46314628460094FFF707FA2046D2
:10355000F8BD502080F31188BFF34F8FBFF36F8FFA
:10356000FEE738B5049D18B153B1CAB181B120E06E
:10357000502080F31188BFF34F8FBFF36F8FFEE7AA
:10358000502080F31188BFF34F8FBFF36F8FFEE79A
:10359000502080F31188BFF34F8FBFF36F8FFEE78A
:1035A00039B1502080F31188BFF34F8FBFF36F8F75
:1035B000FEE750241C46012384F846302B46009435
:1035C000FFF7CCF9204638BD70B50D46040025D074
:1035D000FFF738FDD4E90F20216802FB0011A1603C
:1035E0000021A163216861600A46D4E90F01401EF1
:1035F00000FB0121E16021464FF0FF3001F8440F4C
:10360000487004F110008DB1FFF7EAFC04F12400CA
:10361000FFF7E6FCFFF736FD012070BD502080F378
:103620001188BFF34F8FBFF36F8FFEE72169002929
:10363000F0D000F003FB0028ECD004494FF080509C
:103640000860BFF34F8FBFF36F8FE3E704ED00E037
:103650002DE9FF4782B01D468A464FF0000804005E
:1036600003D0BAF1000F08D011E0502080F3118888
:10367000BFF34F8FBFF36F8FFEE7206C38B1502040
:1036800080F31188BFF34F8FBFF36F8FFEE7022DDA
:103690000AD1E06B012807D0502080F31188BFF3D6
:1036A0004F8FBFF36F8FFEE700F010FA3F4F4FF0E0
:1036B00000094FF0805648B9049838B1502080F383
:1036C0001188BFF34F8FBFF36F8FFEE7FFF7BAFC90
:1036D000A06BE16B884207D3022D05D00498D0B1CE
:1036E000B8F1000F1AD01EE02A4651462046FFF7D7
:1036F0008EF8616A19B104F1240000F09FFA20B13C
:103700003E60BFF34F8FBFF36F8FFFF7BBFC01200D
:1037100006B0BDE8F087FFF7B5FC22E06846FFF78A
:10372000D5FD4FF00108FFF7ADFCFFF755FEFFF7A1
:1037300089FC94F94400401C01D184F8449094F928
:103740004500401C01D184F84590FFF79BFC04A97B
:10375000684600F029F930B12046FFF717FB00F06A
:10376000A5FA0020D4E7FFF76DFCA06BE16B88425F
:1037700013D1FFF787FC04F110000499FFF7B4FDA3
:103780002046FFF703FB00F091FA00289ED13E602F
:10379000BFF34F8FBFF36F8F98E7FFF773FC20469F
:1037A000FFF7F4FA00F082FA90E7000004ED00E081
:1037B0002DE9F0471F4690468946040003D0B9F131
:1037C000000F08D011E0502080F31188BFF34F8F15
:1037D000BFF36F8FFEE7206C38B1502080F3118863
:1037E000BFF34F8FBFF36F8FFEE7022F0AD1E06B5D
:1037F000012807D0502080F31188BFF34F8FBFF30B
:103800006F8FFEE7FFF796FC5020EFF3118680F3F1
:103810001188BFF34F8FBFF36F8FA06BE16B8842AE
:1038200006D3022F04D0002086F31188BDE8F0876C
:1038300094F94550A06B3A4649462046FEF7E7FF0B
:10384000681C04D06D1C84F845500120ECE7606AC8
:103850000028FAD004F1240000F0F0F90028F4D098
:10386000B8F1000FF1D00121C8F80010EDE7000019
:103870002DE9F747002683B08A46040003D0BAF149
:10388000000F08D011E0502080F31188BFF34F8F54
:10389000BFF36F8FFEE7206C38B1502080F31188A2
:1038A000BFF34F8FBFF36F8FFEE700F00FF9DFF824
:1038B000F4804FF000094FF0805748B9059838B1AF
:1038C000502080F31188BFF34F8FBFF36F8FFEE757
:1038D000FFF7B8FBA56BC5B151462046FEF784FF44
:1038E0006D1EA563206950B104F1100000F0A6F927
:1038F00028B1C8F80070BFF34F8FBFF36F8FFFF789
:10390000C1FB012006B0BDE8F087059808B11EB1E3
:1039100006E0FFF7B7FB27E06846FFF7D7FC012674
:10392000FFF7B0FBFFF758FDFFF78CFB94F944005D
:10393000401C01D184F8449094F94500401C01D109
:1039400084F84590FFF79EFB05A9684600F02CF827
:10395000002820460AD0FFF719FA00F0A7F9204600
:10396000FFF7A8F80028B3D00020CBE7FFF7A2F8B4
:1039700090B104F124000599FFF7B6FC2046FFF74B
:1039800005FA00F093F90028A2D1C8F80070BFF33F
:103990004F8FBFF36F8F9BE72046FFF7F7F900F0DB
:1039A00085F995E704ED00E02DE9F0410C460500AE
:1039B00011D0C4B1FFF746FB174BDA686E68206878
:1039C000911B471C17D02F681B6A9F4219D0964243
:1039D00017D8012410E0502080F31188BFF34F8FD7
:1039E000BFF36F8FFEE7502080F31188BFF34F8F36
:1039F000BFF36F8FFEE70024FFF744FB2046BDE8CE
:103A0000F081884205D9401A20602846FFF75EFC05
:103A1000F1E700202060DCE7180000202DE9FF5FBF
:103A20008346DDE90E87994616468A469000FFF7E1
:103A3000E3F905001CD05C20FFF7DEF9040014D088
:103A40000020256384F85900CDE90240CDE90087C4
:103A50004B46324651465846FEF792FF2046FEF747
:103A60002FFE012004B0BDE8F09F2846FFF71EFBA3
:103A70004FF0FF30F6E7F0B585B0DDE90B640A9D45
:103A8000A6B1DCB15C2700972663022684F8596052
:103A9000002604AFCDE90246CDE90057FEF770FFDE
:103AA0002046FEF70DFE049805B0F0BD502080F3CF
:103AB0001188BFF34F8FBFF36F8FFEE7502080F365
:103AC0001188BFF34F8FBFF36F8FFEE70548416941
:103AD00019B1006B18B10020704701207047022017
:103AE00070470000180000200148C06870470000BF
:103AF000180000202DE9F0412E4C0027206B28B142
:103B0000A069401CA0613846BDE8F081E668761CDB
:103B1000E66013D1606B006838B1502080F31188E3
:103B2000BFF34F8FBFF36F8FFEE7606BA16B6163D5
:103B3000A063206A401C2062FFF7A8F8A06ADFF8A3
:103B40007880864209D3606B0068A0B1606BC06862
:103B5000C5686868864211D2A0622068C06A00EB1E
:103B6000800158F82100012800D90127E0690028C8
:103B7000C9D00127C7E74FF0FF30EDE7281DFFF759
:103B800005FAA86A18B105F11800FFF7FFF9E86A0D
:103B90002169884200D9206100EB800108EB810097
:103BA000291DFFF743FAE86A2168C96A8842CAD327
:103BB0000127C8E7180000202001002070B504008C
:103BC0004FF0000133D01B4D2868844207D05020AD
:103BD00080F31188BFF34F8FBFF36F8FFEE7206D27
:103BE00038B1401E2065E36CE26A9A421FD040B1B2
:103BF0001DE0502080F31188BFF34F8FBFF36F8F0C
:103C0000FEE7201DFFF7C2F9E06CE062C0F138006A
:103C1000A061E06A2969884200D92861064900EB61
:103C2000800001EB8000211DFFF700FA012108460A
:103C300070BD0000180000202001002070B5C06891
:103C4000C46854B104F118000646FFF79FF9144DFB
:103C5000286B50B13146134815E0502080F311888D
:103C6000BFF34F8FBFF36F8FFEE7201DFFF78EF975
:103C7000E06A2969884200D928610B4900EB80007D
:103C800001EB8000211DFFF7D1F9E06A2968C96ABC
:103C9000884202D90120E86170BD002070BD00009B
:103CA00018000020A8050020200100202DE9F04781
:103CB0002C4D00242746286B38B1FFF7C3F9286B39
:103CC000401E2863286B40B146E0502080F31188E5
:103CD000BFF34F8FBFF36F8FFEE7A968224E01201D
:103CE000D1B3A6F5916980463068E0B1F068C46848
:103CF00004F11800FFF74AF9201DFFF747F9E06AC1
:103D00002969884200D9286100EB800109EB810014
:103D1000211DFFF78BF9E06A2968C96A8842E3D35D
:103D2000C5F81C80E0E70CB1FEF7B0FFAC694CB100
:103D30004FEA0806FFF7DEFE00B1EE61641EF9D11E
:103D40000020A861E86938B10849012738070860F0
:103D5000BFF34F8FBFF36F8FFFF794F93846BDE87D
:103D6000F087000018000020A805002004ED00E006
:103D700010B586B0FEF70CFD114C2068B8B10020DC
:103D80000390049005AA04A903A8FFF71DF9DDE933
:103D9000032102208DE8070000230AA10B48059AA1
:103DA000FFF769FE606010B106B0012010BD502021
:103DB00080F31188BFF34F8FBFF36F8FFEE70000D2
:103DC00054000020546D722053766300692D000862
:103DD0002DE9FF411E46134602000A9D4FF00000E8
:103DE00016D0144C2768002F0FD0CDE90013029293
:103DF000062917DAFFF76AFE02284FF000030FD0FA
:103E0000002269462068FFF723FC04B0BDE8F0817A
:103E1000502080F31188BFF34F8FBFF36F8FFEE701
:103E20002A46EEE70023324669463846FFF7C0FCD3
:103E3000EBE700005400002010B591EA030F48BFE3
:103E400083F0004300F1CA82841A71EB030C05D29F
:103E5000121943EB0C03001B61EB0C01DFF824E1AA
:103E60004FEA1154A4EB135C1EEA430F18BF9EEAFD
:103E7000445F73D023EA0E03DCF1200E21EA0451E3
:103E800043F4801332D322FA0CFE10EB0E0023FA17
:103E90000CFE41EB0E01CCF1200E03FA0EFE10EBEE
:103EA0000E0051F10001B1F5801FCCF1200E32D28D
:103EB00001EB045112FA0EF2BDE8104058BF7047F2
:103EC000401C38BF5FEA420218BF7047002814BF89
:103ED00020F0010041F100014FEA410313F5001FFA
:103EE00038BF7047A1F1C04100F0CEB9012A43EBC1
:103EF0000302ACF1200CDCF11F0E32BF4FF0000EBC
:103F000023FA0CF310EB030041EB0451B4EB115F07
:103F1000D0D0A1EB045101F5801149085FEA3000CF
:103F200001EB04510ED350F1000038BF12FA0EFE1F
:103F300008D1BDE81040C9E7401C38BF5FEA420223
:103F4000CAD1C3E7BDE810404FEA410313F5001F93
:103F500038BF7047A1F1C04100F096B99EEA445FB6
:103F600008D011EA5E0FBDE8104004BF01F0004127
:103F700000207047BDE8104070B500F037F900BF71
:103F800064FBBE3E0000E0FF491058BFC1F1404154
:103F90005B1058BFC3F140438B42EFF30080704782
:103FA0004FEA1153A3F58063D3F11E03A8BFD3F1E9
:103FB000200C08DB4FF0004242EAC12252EA505284
:103FC00032FA03F0704709420BD4102BC4BF002013
:103FD000704703F5787CBCF1FF3F05D04FF0FF3010
:103FE00070474FF00000704770B500F0FFF800BF59
:103FF0004992248000207047F0E7B0FA80F310FA6D
:1040000003F10AD0C3F11D0303F580634FEA415069
:104010004FEA035202EBD12170474FF00000704786
:1040200051EA030C17D41CF5801F58BFBCF5801F44
:1040300000F10680994218BF704708BF9042704750
:1040400007D711F5801F58BF13F5801F19D4994267
:104050007047894270471CF5801F08D5BCF5801F4A
:10406000F7D58B4218BF704708BF824270474FF4A4
:10407000001C1CEB410F38BF1CEB430F01D28B42DD
:10408000704770B500F0B2F8922449004FF000512B
:104090004FF08053FFF778BFDFF848C170B51CEAD6
:1040A000111E1EBF1CEA13159EEA0C0F95EA0C0F99
:1040B00000F06F8081EA030423EA4C134EEAD47EB9
:1040C00021EA4C1141F4801143F48013AE44A1FB6A
:1040D000024CA0FB0365AEF17F7E361955EB0C0553
:1040E000A1FB034C4CF10003A0FB021C16EB0C06D9
:1040F000654153F10003094218BF46F0010613F46D
:10410000007F0BD14FEA03314FEA0530340341EA17
:10411000155140EA16506FF003020AE04FEAC3213E
:104120004FEAC520F40241EA555140EA56506FF07B
:10413000020202EB2E4201EB025585EACE710AD053
:104140005FEA440C18BF24F0004450F1000041F134
:10415000000120EAD47040F2FE7C624500D270BDBE
:10416000A84214BF4FF080444FF04044002E08BFD7
:104170000024BEF1806FA8BFA1F1C041BDE870402E
:1041800080F282804FF0000001F1C04101F0004157
:1041900070479EEA0C0F0CEA131518BF95EA0C0F36
:1041A00006D04FF0000081EA030E0EF0004170BD12
:1041B00000F01CF88900013E00F007B800F009B8D3
:1041C0004FEA430C5FEA5C5C08D081EA030100F02F
:1041D0005BB84FEA410C5FEA5C5CF6D14FF000003F
:1041E000014970470000FF070000F87F0EF1020E42
:1041F0002EF0030E5EF8046B364205D4012A43EB21
:10420000030515F5001F12D8012841EB010C1CF520
:10421000001F0CD80ED14FEAD17C15F5001F0CEB16
:104220004C0C0CF1020C08BF4CEBD37C04E04FF0BB
:10423000080C01E04FEAD37C0CEB4C0526FA05F69E
:1042400006F00706B6F1040C06D20EEB860CBDE8AC
:1042500070404CF0010C6047DFE80CF0090B0202E3
:104260004FF000414FF00000A1F5002170BD19464C
:104270001046012851EB010418BFD4F5001484BF87
:10428000002001F0004170BD0808A0F500114FEAC0
:104290003101704753EA010C17D41CF5801F58BF39
:1042A000BCF5801F00F106808B4218BF704708BF25
:1042B0008242704707D713F5801F58BF11F5801F42
:1042C00019D48B4270479B4270471CF5801F08D55C
:1042D000BCF5801FF7D5994218BF704708BF9042C0
:1042E00070474FF4001C1CEB430F38BF1CEB410F11
:1042F00001D2994270470FB40CBC03BCFFF7C1BE9A
:104300005FEA410C5FEA5C5CACF580635B1C39D40E
:10431000D3F1340240F34580B2F1200314DA4FF0B8
:10432000010C0CFA02FCACF101030340B3EB5C029C
:1043300020EA030008BF10EA0C0F98BF704710EB8B
:104340000C0041F1000170470AD0C3F1200201FACC
:1043500002FC012821FA03F101FA03F14CF10000FB
:104360004FF0010C0CFA03FCACF10103B0F1004F6B
:1043700021EA030108BF11EA0C0F4FF0000088BFCB
:1043800061447047B3F1FF3F28BF50EAC12C01F0F0
:1043900000414FF0000084BF41F07C5141F47001B6
:1043A0007047B3F5806FB8BF704770B5FFF71EFF59
:1043B00040DBB6BE91EA030F10B581F000413FF536
:1043C00043AD83F0004300F009B8000010B591EA56
:1043D000030F48BF83F000433FF536AD841A71EBFD
:1043E000030C07D212198CF0004C43EB0C03001B9A
:1043F00061EB0C01DFF8A4E14FEA1154A4EB135C6C
:104400001EEA430F18BF9EEA445F00F0B08023EA23
:104410006E03524221EA0451C3EB6E0338BF5B1EA8
:10442000DCF1200E25D322FA0CFE10EB0E0043FA2D
:104430000CFE41EB0E01CCF1200E03FA0EFE10EB48
:104440000E0051F10001CCF1200E29D412FA0EF227
:1044500001EB0451BDE8104058BF7047401C1CBF21
:10446000B2F1004F704700280CBF491C20F001003A
:10447000704712EB020E43EB030218BF4FF0010E20
:104480004EEA4202ACF1200CDCF11E0E54D943FA84
:104490000CFE10EB0E0051F1FF31CCF11E0ED5D504
:1044A0000EF1010E12FA0EFE404141EB010101EB4B
:1044B000445C5FEA5C5C10D910EBDE7001EB0451E8
:1044C00038BFBEF1004FBDE8104018BF704700284C
:1044D0000CBF491C20F00100704730D24FEAD42CA9
:1044E00011F5001124F400641BD0B1FA81F20B3AEB
:1044F000A41AA41ED2F12003914030FA03F3194309
:10450000904001EBCC71002C01EB0451BDE8104050
:10451000A8BF704701F1C0414FF0000001F0004119
:104520007047B0FA80F310FA03F100D110BDE41A1D
:10453000173C4805C90AE4E701EB045110BD4910D6
:1045400001EB0451BDE810404FEA300002E04FF0AB
:10455000000170474A0008BF0042F8D0B2F5001FC2
:1045600028BF704701F000414FF0000070479EEAFD
:10457000445F07D011EA5E0FBDE8104004BF002180
:1045800000207047BDE8104070B5FFF72FFE00BF58
:1045900040DFF63E83F00041104670470000E0FF28
:1045A00043004FEAD30C4FEA3C0C43401FBF400787
:1045B0000CF1605113F0FE4F70471CF0006F03D1F7
:1045C00000200CF0004170470CF0004343EA5070AB
:1045D00010B540EACC0000F000FA00BF00000092E5
:1045E0004FEA0001FFF750BE4FF000414FF00000CE
:1045F000A1F500217047000090EA010F48BF81F04B
:10460000004100F13C82421A3CBF801A89184FEAEF
:10461000D0524FF07F4C1CEA410FA2EBD15318BF90
:104620009CEA026F00F03B804FF0004C4CEA002007
:104630004CEA012121FA03FC10EB0C0C1ED202F112
:10464000FF325FEA1C2040EBC25038BF70471CF0BD
:104650007F0F4FEA400C18BFBCF17F4F38BF704747
:10466000C3F12003994008BF20F00100BCF17F4F47
:1046700038BF7047A0F1C04000F0F5B94FEA3C00E8
:10468000000A40EBC25028BF1CF0FF0F4FEA400C5D
:10469000E6D018BFBCF17F4F38BF7047EAE79CEA0D
:1046A000026F05D010EA5C0F08BF00F000407047B1
:1046B00010B500F092F900BF64FBBE3E4FF47F0CD2
:1046C0001CEAD0121EBF1CEAD11392EA0C0F93EA27
:1046D0000C0F00F0858090EA010F48BF42F4807211
:1046E00040F4000C41F400002CF07F4120F07F40AA
:1046F00000B58142A2EB03020FF2081CACEB504E56
:10470000C0F100009EF800E04FEA4E0E00FB0EFCE8
:1047100038BF49004FEA2C1C02F5FA020CFB0EF3DD
:104720004FEACE1E4FEA112C4FEAC1210EEB635E19
:1047300042EB22420EFB0CFC4FEA1C5300FB031120
:104740004FEA112C4FEA01310EFB0CFC4FEADC4C16
:1047500000FB0C11C14228BF09184CEB03335DF874
:1047600004EB10EB410143EBC250B2F57C0F38BFB4
:10477000704729D512F0F00F1CBF00F1C04000F0C7
:1047800000407047008182838485868788898B8C6E
:104790008D8E8F919293959697999A9C9D9FA0A2AA
:1047A000A3A5A7A8AAACAEB0B2B3B5B7B9BCBEC0FA
:1047B000C2C5C7C9CCCED1D4D7D9DCDFE2E6E9EC9B
:1047C000F0F3F7FAFE0000004FEA400C0CF1807C99
:1047D000BCF17E4F28BF7047B0F1C04000F043B934
:1047E00090EA010F0CEAD11348BF42F4807262458F
:1047F00038BF634507D213F47F0F16D080EA01005B
:1048000000F00040704710B500F0E7F8097EFC3E6C
:1048100000F005B880EA010000F00040704780EA2F
:10482000010000F0004000F01EB912F47F0F04BF39
:104830000248704780EA010000F015B90000C07F0F
:10484000C10DD1F19E0206DB4FEA002343F0004385
:1048500023FA02F07047004207D54FEA4001B1F158
:10486000FE4F02D24FF00000704710B500F0B5F8CF
:1048700049922480002070476FEA200070470000B2
:1048800010F0004148BF4042B0FA80F310FA03F242
:10489000C3F19D030BD051EAC35101EB1220530623
:1048A00038BF704700F1010008BF20F001007047D9
:1048B000B0FA80F310FA03F2C3F19D030AD0D905D0
:1048C00001EB1220530638BF704700F1010008BF0A
:1048D00020F00100704700004FF47F0C1CEAD0125A
:1048E0001EBF1CEAD11392EA0C0F93EA0C0F00F0E2
:1048F000478090EA010F48BF42F480724FF0004CAD
:104900004CEA00204CEA012102EB0302A0FB011358
:10491000A2F50002002918BF43F001035B0028BF85
:104920004FEA330342EB22425FEA132C4CEBC250B6
:104930002EBFBCEB436FB2F57C0F70474FEA036CA0
:10494000BCF1004F08BF20F00100B2F57C0F38BF6A
:1049500070470BD582F0FF0212F5803FC8BF704749
:1049600000F1C040D8BF00F00040704700F5000CD7
:104970005FEA4C0C48BF7047B0F1C04000F073B81C
:1049800090EA010F0CEAD11348BF42F480726245ED
:1049900038BF634504D280EA010000F00040704750
:1049A00010B500F01AF800BF8900013E00F007B80A
:1049B00000F009B85FEA410C5FEA1C6C08D080EA9D
:1049C000010000F050B85FEA400C5FEA1C6CF6D1C1
:1049D0004FF00040A0F5800070470EF1020E2EF05F
:1049E000030E5EF8044B244204D44FEA4102B2F1B4
:1049F0007F4F11D84FEA4003B3F17F4F0CD80ED14F
:104A00004FEAD07CB2F17F4F0CEB4C0C0CF1020C56
:104A100008BF4CEBD17C04E04FF0080C01E04FEAFA
:104A2000D17C0CEB4C0324FA03F404F00704B4F13A
:104A3000040C06D20EEB840CBDE810404CF0010CC7
:104A40006047DFE80CF0070802024FF00040A0F5D5
:104A5000800010BD0846420018BFD2F1807288BFA6
:104A600000F0004010BDFF2141EAD050C005704762
:104A700090EA010F48BF81F000413FF5C4AD421AF2
:104A800004D882F00042A0EB020011444FEAD05259
:104A90004FF07F4C1CEA410FA2EBD15318BF9CEAA8
:104AA000026F4AD04FF0004C4CEA00204CEA012142
:104AB00021FA03FCB0EB0C0C0FD412F0FE0F36D031
:104AC0005FEA4C001DD5001240EBC25038BF704762
:104AD0001CF03F0F18BF70470BE0A2F101025FEA24
:104AE0001C2040EBC25038BF70471CF07F0F18BF2E
:104AF0007047C3F12003994014BF401E20F001000D
:104B0000704780084FEA122308BF7047B0FA80FC54
:104B1000A2EB0C02CCF1280C60FA0CF093EA122FF5
:104B200004BF00EBC25070474FEAC3707047130ACE
:104B30005FEADC1008BF7047F6E79CEA026F04D01A
:104B400010EA5C0F08BF0020704710B5FFF745FF63
:104B500040DFF63E81F00040704701020203040589
:104B6000060708090A0B0C0D0E0F101000000000BC
:104B7000000000000102030406070809000000000D
:104B8000000000000000000000000000000000F82D
:104B900000000000000000333000000000160E008E
:104BA000160E0000000000000000000040C0784029
:104BB000C0784000043F04043F040400007088FCF7
:104BC00008300000001820FF211E0000F008F0004F
:104BD000E018000000211C031E211E0000F00888C0
:104BE000700000001E212324192721100000001648
:104BF0000E0000000000000000000000000000E0C7
:104C000018040200000000071820400000020418E9
:104C1000E00000000040201807000000404080F045
:104C2000804040000202010F01020200000000F07B
:104C3000000000000101011F01010100000000004F
:104C40000000000000B07000000000000000000044
:104C5000000000000001010101010101000000004D
:104C600000000000003030000000000000000000E4
:104C700080601804006018060100000000E01008C1
:104C80000810E000000F102020100F00001010F896
:104C9000000000000020203F2020000000700808D5
:104CA0000888700000302824222130000030088855
:104CB000884830000018202020110E000000C0207D
:104CC00010F8000000070424243F240000F808889E
:104CD000880808000019212020110E0000E010882B
:104CE00088180000000F112020110E00003808085D
:104CF000C83808000000003F00000000007088086D
:104D000008887000001C222121221C0000E01008ED
:104D10000810E0000000312222110F00000000C046
:104D2000C00000000000003030000000000000C0A3
:104D3000C0000000000080B0700000000000804053
:104D400020100800000102040810200040404040EC
:104D5000404040000404040404040400000810203F
:104D60004080000000201008040201000070480884
:104D70000808F0000000003036010000C030C828EC
:104D8000E810E0000718272423140B000000C038A7
:104D9000E0000000203C23020227382008F8888821
:104DA00088700000203F202020110E00C03008082D
:104DB00008083800071820202010080008F8080804
:104DC0000810E000203F202020100F0008F88888FD
:104DD000E8081000203F20202320180008F88888C9
:104DE000E8081000203F200003000000C030080841
:104DF0000838000007182020221E020008F80800CA
:104E00000008F808203F210101213F20000808F890
:104E1000080800000020203F2020000000000808B3
:104E2000F8080800C08080807F00000008F888C073
:104E300028180800203F20012638200008F8080024
:104E400000000000203F20202020300008F8F8005B
:104E5000F8F80800203F003F003F200008F830C06D
:104E60000008F808203F200007183F00E01008085D
:104E70000810E0000F10202020100F0008F808088C
:104E80000808F000203F210101010000E01008089F
:104E90000810E0000F18242438504F0008F88888C4
:104EA00088887000203F2000030C302000708808A4
:104EB000080838000038202121221C00180808F8B2
:104EC000080818000000203F2000000008F8080033
:104ED0000008F808001F202020201F000878880004
:104EE00000C83808000007380E010000F80800F874
:104EF0000008F800033C0700073C0300081868801E
:104F00008068180820302C03032C30200838C80093
:104F1000C83808000000203F2000000010080808E2
:104F2000C83808002038262120201800000000FE84
:104F3000020202000000007F40404000000C30C030
:104F400000000000000000010638C000000202025C
:104F5000FE000000004040407F00000000201008DC
:104F60000408102000000000000000000000000005
:104F70000000000080808080808080800002040823
:104F80000000000000000000000000000000808021
:104F9000808000000019242222223F2008F800808F
:104FA00080000000003F112020110E000000008052
:104FB00080800000000E11202020110000000080E1
:104FC0008088F800000E112020103F200000808013
:104FD00080800000001F222222221300008080F027
:104FE000888888180020203F202000000000808052
:104FF00080808000006B94949493600008F8008097
:1050000080800000203F210000203F2000809898F1
:10501000000000000020203F202000000000008051
:105020009898000000C08080807F000008F8000091
:1050300080808000203F24022D302000000808F8E6
:10504000000000000020203F2020000080808080A1
:1050500080808000203F20003F20003F00808000B3
:105060008080000000203F2100203F200000808041
:1050700080800000001F202020201F0080800080F2
:105080008000000080FFA12020110E0000000080A1
:1050900080808000000E112020A0FF808080800092
:1050A0008080800020203F212000010000008080BF
:1050B000808080000033242424241900008080E0B4
:1050C000808000000000001F202000008080000081
:1050D00000808000001F202020103F208080800062
:1050E0000080808000010E30080601008080008072
:1050F000008080800F300C030C300F000080800097
:10510000808080000020312E0E31200080808000C1
:105110000080808080818E70180601000080808071
:10512000808080000021302C22213000000000000F
:10513000807C020200000000003F404000000000B0
:10514000FF00000000000000FF0000000002027CE1
:10515000800000000040403F000000000080404010
:10516000800000800000000000010100000000003D
:1051700000000000002F00000000070007000014DE
:105180007F147F1400242A7F2A12002313086462EC
:1051900000364955225000000007000000001C2284
:1051A0004100000041221C000014083E08140008C1
:1051B000083E0808000000A0600000080808080871
:1051C000000060600000002010080402003E514909
:1051D000453E0000427F40000042615149460021A7
:1051E00041454B31001814127F10002745454539C1
:1051F000003C4A494930000171090503003649491C
:10520000493600064949291E0000363600000000D4
:10521000563600000008142241000014141414141F
:10522000000041221408000201510906003E4955C0
:10523000592E007C1211127C007F49494936003EEC
:1052400041414122007F4141221C007F494949419F
:10525000007F09090901003E4149497A007F080899
:10526000087F0000417F4100002040413F01007F56
:1052700008142241007F40404040007F020C027F22
:10528000007F0408107F003E4141413E007F090934
:105290000906003E4151215E007F0919294600465A
:1052A000494949310001017F0101003F4040403F31
:1052B000001F2040201F003F4038403F006314087B
:1052C0001463000708700807006151494543000056
:1052D0007F414100000204081020000041417F008E
:1052E000000402010204004040404040000001026E
:1052F0000400002054545478007F48444438003857
:105300004444442000384444487F003854545418DE
:1053100000087E0901020018A4A4A47C007F0804F0
:1053200004780000447D4000004080847D00007FC0
:10533000102844000000417F4000007C04180478DD
:10534000007C0804047800384444443800FC2424D9
:1053500024180018242418FC007C080404080048C1
:105360005454542000043F444020003C4040207CE2
:10537000001C2040201C003C4030403C00442810D1
:105380002844001CA0A0A07C004464544C440000AD
:10539000087F41000000007F00000000417F0800FE
:1053A000000804081008CEC2000000000000000041
:1053B000000000000000000000000058380000005D
:1053C000000000000000000000CAAA000000000069
:1053D0000000000000000000000000000000182491
:1053E000241800000000000000000000B6C8000003
:1053F0008060F8074020180F08C808082818000126
:105400000000FF00100C0340807F0001061800B46C
:10541000AB001010F01F10F000808282E2928A86AA
:105420008000402215081661000040807F000000C7
:105430000000B8D000202020FE2020FF202020FFE8
:1054400020202020000000007F4040474444444783
:105450004040400000C6F700000000FE929292FE1D
:10546000929292FE0000000008080484621E01006F
:1054700001FE020404080800000000FF01010131E0
:1054800009090909897101010101FFFF80808080FC
:1054900080809681808080808080FF00BC540008DE
:1054A00000000020B0000000280100086C55000832
:1054B000B0000020683F0000440100080000000028
:1054C00000000000010000001000000000000000CB
:1054D00000127A0000000000000000000000000040
:1054E00000000000000000000000000000000000BC
:1054F00000000000000000000000000000000000AC
:10550000000000000000000000000000000000009B
:10551000000000000000000000000000000000008B
:10552000000000000000000000000000000000007B
:10553000000000000000000000000000000000006B
:10554000000000000000000000000000AAAAAAAAB3
:10555000000000000000000000FF0000000000004C
:0C556000000000001E141E0000007A4431
:04000005080000ED02
:00000001FF
