:020000040800F2
:10000000E045002031020008072F00084D290008B4
:10001000052F0008FF0A0008014100080000000049
:10002000000000000000000000000000990100082E
:10003000310D000800000000DD0100089D3B0008B4
:100040004B0200084B0200084B0200084B0200085C
:100050004B0200084B0200084B0200084B0200084C
:100060004B0200084B0200084B0200084B0200083C
:100070004B0200084B0200084B0200084B0200082C
:100080004B0200084B0200084B0200084B0200081C
:100090004B0200084B0200084B0200084B0200080C
:1000A0004B0200084B0200084B0200084B020008FC
:1000B0004B0200084B0200084B0200084B020008EC
:1000C0004B0200084B0200084B0200084B020008DC
:1000D0004B020008F54000084B0200084B020008E4
:1000E0004B0200084B0200084B02000800F002F827
:1000F00000F042F80AA090E8000C82448344AAF180
:100100000107DA4501D100F037F8AFF2090EBAE87D
:100110000F0013F0010F18BFFB1A43F0010318473B
:100120003072000050720000103A24BF78C878C1C5
:10013000FAD8520724BF30C830C144BF04680C60ED
:10014000704700000023002400250026103A28BF35
:1001500078C1FBD8520728BF30C148BF0B60704739
:10016000642900F0F180732900F09183002070472A
:100170001FB51FBD10B510BD00F0E6FB1146FFF71F
:10018000F7FF03F0D5FF00F004FC03B4FFF7F2FF24
:1001900003BC00F005FC0000224B19680868B0E8B9
:1001A000F00F80F30988BFF36F8F4FF0000080F3EA
:1001B00011884EF00D0E70470000000006480068E0
:1001C000006880F3088862B661B6BFF34F8FBFF353
:1001D0006F8F00DF00BF00BF08ED00E0EFF3098084
:1001E000BFF36F8F0F4B1A6820E9F00F106008B54E
:1001F0004FF0500080F31188BFF34F8FBFF36F8F24
:1002000004F000FF4FF0000080F31188BDE80840C3
:1002100019680868B0E8F00F80F30988BFF36F8FA2
:10022000704700BF24000020EFF3058070470000F6
:100230000948804709480047FEE7FEE7FEE7FEE77A
:10024000FEE7FEE7FEE7FEE7FEE7FEE704480549B6
:10025000054A064B704700002D3C0008ED000008E1
:10026000E03F0020E0450020E0410020E041002088
:100270000FB47CB50C0009AA009001D02044401EA8
:10028000084B7B4469460190089800F0CEFA054679
:100290001CB10020694600F0DBFA28467CBC5DF802
:1002A00014FB0000D505000070B5044685690068A0
:1002B000C10601D5302600E02026C00707D070BD5A
:1002C000D4E9012130469047206A401C20626D1E0F
:1002D000F6D570BD70B5044685690078C00707D1B2
:1002E00070BDD4E9012120209047206A401C206283
:1002F0006D1EF6D570BD70B50C460546012A05D0B9
:100300002878800600D5EA69002302E0012305E091
:100310005B1C934202D2E05C0028F9D1A869E61880
:10032000C01AA861286A184428622846FFF7BCFF53
:1003300004E0D5E9012114F8010B9047B442F8D349
:100340002846FFF7C7FF70BD2DE9F041064600249F
:1003500010687529314616A510D0AFF3008000282B
:1003600002DA404213A507E031688A0701D512A5D9
:1003700002E0490704D511A5012401E0AFF3008094
:1003800000210A2206F1240709E0B0FBF2FCB0FBD1
:10039000F2F302FB1C00303078541846491C002848
:1003A000F3D123462A463046BDE8F04100F0DFB9DC
:1003B000000000002D0000002B00000020000000C5
:1003C0002DE9F05F894604464FF0000ADFF874B16A
:1003D000FB44C0F820A02046E1688847002874D07C
:1003E000252806D0D4E901219047206A401C2062CC
:1003F000F1E700265F462046E16888472028054649
:1004000007DB312D05D2781910F8200C08B106430E
:10041000F1E7B00701D526F00406C4F81CA00027B8
:10042000C4F818A02A2D09D0284603F07AFE38B364
:1004300004EB8708303DC8F8185019E059F8041B40
:10044000204604EB87029161E1688847012F054649
:1004500018D1E069002820DA26F020061DE0D8F83F
:10046000180000EB800005EB40003038C8F8180099
:100470002046E1688847054603F053FE0028EED188
:10048000012F0AD02E2D08D12046E16888477F1C15
:100490000546022F46F02006C4DBA069002803DAD7
:1004A000404246F00106A061F00701D026F0100698
:1004B0006C2D0BD0682D09D04C2D39D06A2D35D03C
:1004C000742D35D07A2D33D016E038E0E1682F4610
:1004D00020468847B842054609D16C2F26D04FF4F4
:1004E0008060E168064320468847054604E06C2F9B
:1004F0001AD04FF4807006430DB3A5F141001928BE
:1005000002D8203546F400664A4629462046266031
:100510004E46FFF725FE80B101280BD0F61D26F0D0
:10052000070000F1080956E74020E4E78020D8E7FB
:100530000020D6E706F104094DE7284652E7206A75
:10054000BDE8F09F416E000030B505460B462A46D7
:1005500013F8014B12F8010B08B1A042F8D01CB1FE
:10056000002802D06D1CF1E7284630BD10B5431CB1
:1005700002E010F8011B71B18107FAD14FF001328E
:1005800002C88C1A8C4314EAC211F9D0C01A0A06A8
:1005900003D0C01E10BDC01A10BD0A0401D0801EB9
:1005A00010BD0902FCD0401E10BD032A40F230806D
:1005B00010F0030C00F0158011F8013BBCF1020FA4
:1005C000624498BF11F801CB00F8013B38BF11F825
:1005D000013BA2F1040298BF00F801CB38BF00F83C
:1005E000013B11F0030300F05681083AC0F0088087
:1005F00051F8043B083A51F804CBA0E80810F5E79D
:10060000121D5CBF51F8043B40F8043BAFF300807F
:10061000D20724BF11F8013B11F801CB48BF11F8F4
:10062000012B24BF00F8013B00F801CB48BF00F8C4
:10063000012B704702F0FF0343EA032242EA024221
:1006400000F05DB94FF0000200B51346944696469F
:10065000203922BFA0E80C50A0E80C50B1F12001D5
:10066000BFF4F7AF090728BFA0E80C5048BF0CC083
:100670005DF804EB890028BF40F8042B08BF7047E1
:1006800048BF20F8022B11F0804F18BF00F8012B53
:10069000704710B5044610F0030F08BF11F0030FA8
:1006A00040F015804FF0013E121FC0F20E8051F84D
:1006B000043BA3EB0E0C2CEA030C1CEACE1C08BF77
:1006C00040F8043BF0D0A1F1040102F10402521EF3
:1006D00008DB11F8013B002B00F8013BF7D1114674
:1006E00000F00BF9204610BD4FF0013C50F8042BF0
:1006F00051F8043B9A4221D1A2EB0C03934313EA35
:10070000CC1317D150F8042B51F8043B9A4215D161
:10071000A2EB0C03934313EACC130BD150F8042B38
:1007200051F8043B9A4209D1A2EB0C03934313EA1C
:10073000CC13DBD04FF00000704700BFD01A01BAD5
:10074000B1FA81F101F0180122FA01F0CB40C1F1B8
:100750002001DBB2C0B2C01A2CFA01F3D11A9143C6
:1007600011EAC311E6D170477047704770472DE911
:10077000F0470D4699469246044600F12408016868
:10078000880604D5E06921F01001216000E0012015
:10079000A84201DD471B00E00027A1697A1902EB9E
:1007A0000900081AA0612078C00602D42046FFF78D
:1007B0007BFD002608E0D4E901211AF806009047E5
:1007C000206A401C761C20624E45F4DB2078C0066F
:1007D0000AD52046FFF768FD06E0D4E90121302064
:1007E0009047206A401C2062381EA7F10107F4DC04
:1007F00007E0D4E9012118F805009047206A401C61
:100800002062281EA5F10105F3DC2046FFF762FDFA
:100810002078000602D50220BDE8F0870120FBE722
:1008200001694A1C02610878704700B58FB0CDE9B4
:1008300001310021059105497944CDE903101146A4
:100840006846FFF7BDFD0FB000BD0000E5FFFFFFEC
:100850000A6802F8010B0A607047D1E900239A4246
:1008600002D2531C0B601070704710B5436913B16E
:10087000AFF3008001E0FFF73EFD012010BD1278CC
:1008800000F124010A7000224A700122EDE711688C
:100890004FF0FF32E9E710B5203AC0F00B80B1E825
:1008A0001850203AA0E81850B1E81850A0E81850A5
:1008B000BFF4F5AF5FEA027C24BFB1E81850A0E8AE
:1008C000185044BF18C918C0BDE810405FEA827CC8
:1008D00024BF51F8043B40F8043B08BF7047D207DF
:1008E00028BF31F8023B48BF11F8012B28BF20F880
:1008F000023B48BF00F8012B70474FF0000204296B
:10090000C0F0128010F0030C3FF49EAECCF1040C4A
:10091000BCF1020F18BF00F8012BA8BF20F8022B72
:10092000A1EB0C01FFF790BE5FEAC17C24BF00F889
:10093000012B00F8012B48BF00F8012B7047000085
:1009400000487047803F00207546FFF7F9FFAE462C
:1009500005006946534620F00700854618B020B5CB
:10096000FFF774FCBDE820404FF000064FF0000791
:100970004FF000084FF0000B21F00701AC46ACE847
:10098000C009ACE8C009ACE8C009ACE8C0098D46B4
:1009900070470446AFF300802046FFF7F6FB0000E7
:1009A00001491820ABBEFEE7260002007047000098
:1009B00070B5044600688168C943C90717D18168CA
:1009C00021F00101816000F083FF05460AE000BFCD
:1009D00000F07EFF401B022804D920688068C043D5
:1009E000C00706D020688068C043C007F0D0002050
:1009F00070BDA06A40F01000A062E06A40F0010003
:100A0000E062012070BD0000F8B5002604460096A3
:100A100000688168C943C9072DD0816841F0010190
:100A20008160164816490068B0FBF1F000E0401EF6
:100A300000900028FBD100F04BFF054616E000BFF8
:100A400000F046FF401B022810D920688068C04390
:100A5000C0070BD0A06A40F01000A062E06A40F02E
:100A60000100E06284F824600120F8BD20688068FD
:100A7000C043C007E4D10020F8BD000020000020E2
:100A800040420F0070B5040009D002F02BF8472057
:100A900001F0ECFF02F080F818B102F053F80120E9
:100AA00070BD01F0AFFF054601F052FF01F0AAFF53
:100AB000064601F07DFF02F045F846EA052005F004
:100AC0002DFD034905F014FC2060002070BD0000DE
:100AD0009A99993F10B502F0CFFC02F003F8462036
:100AE00001F0C4FF02F058F818B1BDE8104002F060
:100AF00029B8102001F0BAFF02F04EF8F5E7FEE742
:100B000070B50024204600F03BF8134D04E0641C4F
:100B1000E4B2012000F0E0F80121284600F0CEFE0A
:100B200010B1642CF3D30FE0642C0DD2002404E048
:100B3000641CE4B2012000F0CFF80121284600F047
:100B4000BDFE18B1642C04D3012070BD642CEFD31A
:100B5000FAE7002070BD00000008014010B5012038
:100B600000F00EF801221146044800F0ACFE00F03F
:100B70008BF8BDE81040FFF7C3BF0000000801403C
:100B800000B585B000210191029103910A498A695B
:100B900042F004028A61896901F004010491012193
:100BA0000091012802D10320019103906946034876
:100BB00000F094FD05B000BD0010024000080140A7
:100BC00070B50024134D04E0641CE4B2012000F071
:100BD00083F80121284600F071FE08B1642CF3D39C
:100BE000002404E0641CE4B2012000F075F8012147
:100BF000284600F063FE08B9642CF3D3282000F0E7
:100C00006BF80121284600F059FE002800D0012091
:100C100070BD00000008014070B500200446400689
:100C2000050EFFF7CDFF641C2843E4B2082CF6D371
:100C300070BD00002DE9FC410D46064600F024F889
:100C4000FFF75EFFE8B900244FEA0D07FFF7E4FF66
:100C50003855641CE4B2052CF8D39DF800109DF8BB
:100C600001009DF803300A189DF8020003441A445D
:100C70009DF804309A4204D1297030700020BDE8FC
:100C8000FC810120FBE7000010B50120FFF778FF91
:100C9000094C00220121204600F015FE142000F02E
:100CA0000DF801221146204600F00DFEBDE810406F
:100CB0000D2000F011B800000008014070B5054695
:100CC00000244FF47A7603E0304600F005F8641C07
:100CD000AC42F9D370BD000004494A68044B1B685C
:100CE00058434B689B1A8342FBD37047001000E0C7
:100CF000A40000200948016841F0807101600848A3
:100D0000016841F001010160002141600548064988
:100D10000068B0FBF1F0054908607047FCED00E0A9
:100D2000001000E02000002040420F00A40000203E
:100D3000704700003EB5044602F0E6F800210623A5
:100D400030A2084602F0D4FA207A062538B1009580
:100D5000227803230021282002F0A6FA05E00623CA
:100D60002AA20021282002F0C3FA062328A2082183
:100D7000002002F0BDFA207A38B100956278032392
:100D80000821282002F090FA05E006231FA208217E
:100D9000282002F0ADFA06231FA21021002002F045
:100DA000A7FA607A38B10095A27803231021282091
:100DB00002F07AFA05E0062314A21021282002F09E
:100DC00097FA062316A21821002002F091FAA07AC1
:100DD00070B1606805F0F2F901220423CDE9003218
:100DE00002460B4602951821282002F09FF905E0E3
:100DF000062306A21821282002F07AFABDE83E4018
:100E000002F0E4BA54656D703A0000004572720059
:100E100048756D203A000000536F696C3A0000007D
:100E20004C7578203A000000FEB502F06DF8002104
:100E3000062342A2084602F05BFA444C6078002880
:100E400074D043A206230821002002F051FA0821A1
:100E5000062340A2084602F04BFA3C4E062508360F
:100E60000095327803230821382002F01DFA06236A
:100E70003AA208214A2002F03BFA6078012857D0B4
:100E800033A206231021002002F032FA062334A2F6
:100E90001021082002F02CFA00957278032310210B
:100EA000382002F001FA06232FA210214A2002F076
:100EB0001FFA607802283DD025A2062318210020C1
:100EC00002F016FA062329A21821082002F010FACF
:100ED0000095B27803231821382002F0E5F90623A3
:100EE00021A218214A2002F003FA6078032823D0B7
:100EF00017A206232021002002F0FAF906231DA2E2
:100F00002021082002F0F4F9706805F057F9012259
:100F10000423CDE9003202460B46029520213820F9
:100F200002F004F9BDE8FE4002F050BA13A289E7CE
:100F300012A2A6E711A2C0E710A2DAE75468726510
:100F400073686F6C6420536574000000B00000206B
:100F50002000000054656D703A000000430000005E
:100F600048756D3A0000000025000000536F696C61
:100F70003A0000004C75783A000000003E00000086
:100F800070B501F0C1FF0021062322A2084602F03D
:100F9000AFF9062322A20821002002F0A9F90623B6
:100FA00021A20821242002F0A3F9204D2878062848
:100FB00010D2DFE800F0030507090B0D1CA40AE0BE
:100FC0001FA408E021A406E024A404E026A402E073
:100FD00029A400E02BA406232CA21021002002F05B
:100FE00087F9062322461021302002F081F9287863
:100FF00005280BD1062327A21821002002F078F93A
:10100000062326A21821302002F072F9BDE87040B4
:1010100002F0DCB957694669205374617475730036
:10102000535349443A0000007A736700C00000201F
:10103000446973636F6E6E656374656400000000DD
:10104000496E69742041542E2E2E0000436F6E6E3F
:10105000656374696E672E2E2E0000004D51545446
:10106000204366672E2E2E004D51545420436F6E40
:101070006E2E2E2E00000000436F6E6E6563746549
:1010800064210000556E6B6E6F776E00537461744F
:1010900075733A005365727665723A006D717474B7
:1010A000732E6865636C6F7564732E636F6D0000DB
:1010B00070B5094D06460C46287800280AD0621EF5
:1010C00006493046FFF7E5FA0020311901F8010C16
:1010D0002870012070BD0000A8000020803500208D
:1010E00072B60020024948800249087062B6704713
:1010F000A80000208031002070B50DA11048FFF736
:1011000023FA010013D00F4D0D4840F2FF146A88F6
:101110001044401A80B2A04200D2044622460A4837
:10112000FFF743FA0849002008550120287070BDD8
:101130002B4D515454535542524543563A000000EA
:1011400080310020A8000020803500202DE9F04FDC
:10115000ADF5017D16468B460446FFF7CDFFFFF740
:10116000BFFF2046FFF702FA82B24FF47A7321469E
:101170001D4801F00DFB642302221CA11A4801F056
:1011800007FB00F0A5FB0546194F4FF400784FF020
:101190000009EA4620E072B67C88444506D2224621
:1011A00014496846FFF701FA0AF8049062B65946F6
:1011B0006846FFF7C9F920B100200DF5017DBDE8B3
:1011C000F08F0DA16846FFF7BFF910B16FF0010075
:1011D000F3E7142003F01CFE00F07AFB401BB04242
:1011E000D9D34FF0FF30E8E73C0100200D0A0000A2
:1011F000A8000020803100204552524F52000000CC
:101200000A4610B5014641F28833044801F0C0FA9D
:10121000002801D04FF0FF3010BD00003C0100203D
:1012200001220249024801F07FBA0000A900002013
:101230003C0100202DE9F04FADF5017D0E468346BF
:10124000FFF75AFFFFF74CFF00F042FB0546184F2F
:101250004FF400784FF00009EA4620E072B67C882F
:10126000444506D2224613496846FFF79EF90AF81C
:10127000049062B659466846FFF766F920B100202F
:101280000DF5017DBDE8F08F0BA16846FFF75CF915
:1012900010B16FF00100F3E7142003F0B9FD00F086
:1012A00017FB401BB042D9D34FF0FF30E8E70000F6
:1012B000A8000020803100204552524F520000000B
:1012C00072B6FEE7F8B50024009490F82420254675
:1012D000012A12D0012280F824204A681F23072AFD
:1012E0000DD20668776B521E02EB820293409F4339
:1012F0000B6893401F43776319E00220F8BD06682E
:101300000D2A0AD2376BD21F02EB820293409F4311
:101310000B6893401F43376309E0F76A0D3A02EB0D
:10132000820293409F430B6893401F43F7620A6811
:10133000072306680A2A0AD3F7680A3A02EB420230
:1013400093409F438B6893401F43F76008E03769E1
:1013500002EB420293409F438B6893401F433761E7
:101360000A68102A01D0112A20D1124B02689A4231
:1013700017D193681B0219D4936843F40003936058
:101380000968102912D10C490C4A0968B1FBF2F125
:1013900001EB8101490000E0491E00910029FBD1C9
:1013A00004E0816A41F020018162012480F8245028
:1013B0002046F8BD002401402000002040420F00DC
:1013C0000068C06C704700002DE9F0414FF0000745
:1013D00004003D467ED0A06A002628B9E66284F863
:1013E0002460204600F07EF82046FFF7E1FAA16A6B
:1013F00001F01001014304D0A06A40F01000A06287
:1014000068E0A16A21F4885141F00201A16262689A
:10141000E169237B0A4347EA43010A43A1684FF489
:101420008077B94208D0012906D0002194F814C071
:10143000BCF1010F02D00AE03946F7E7F3B1A36A25
:1014400043F02003A362E36A43F00103E3622368ED
:10145000D3F804C02CF4694C4CEA010CC3F804C066
:1014600023689968DFF870C001EA0C0111439960A4
:10147000A168B9420BD0012909D00CE0DFF85CC0AB
:10148000A3690CEB43330B4343F40061DFE7218A8C
:101490000D05A5F580152168CB6A23F470032B4355
:1014A000CB62216889680E4B1940914208D1E662EF
:1014B000A16A21F0020141F00101A162BDE8F081C1
:1014C000A06A20F0020040F01000A062E06A40F044
:1014D0000100E0620120F1E7FDF7E1FF00E0FFFF1E
:1014E000FE0E1FFF00B585B0002100910191029111
:1014F000039100680E49884218D10E48816941F471
:1015000000718161816901F400710491816941F088
:10151000040181618069694600F0040004900220A2
:10152000009003200190044800F0D8F805B000BDF9
:1015300000240140001002400008014070B504463C
:1015400090F8240001280DD0012084F824002046C2
:10155000FFF75AFA02004FF0000005D084F824008B
:10156000104670BD022070BDA16A40F2012399436C
:1015700041F48071A1621F4D23681F49AB4218D10D
:101580000E6816F4702F14D0A66A46F48016A66270
:101590000E68760505D5A66A26F4005646F48056F0
:1015A000A662A66AF6040AD5E66A26F00606E66290
:1015B00006E0A66A26F48016A6625E68E9E7E062A5
:1015C00084F824006FF00200186020688368C3F379
:1015D0004243072B05D1A84208D1096811F4702FA6
:1015E00004D0816841F480118160B9E7816841F4D9
:1015F000A001F9E7002801400424014010B590F84B
:1016000021100022022905D00421816380F82020C6
:10161000012010BD01680B6823F00E030B60016808
:101620000B6823F001030B6090F84030C46B01217C
:1016300001FA03F3636080F8211080F8202010463F
:1016400010BD000010B590F821100024022903D02D
:101650000421816301243DE001680A6822F00E0242
:101660000A6001680A6822F001020A601A4A0168E9
:10167000914201D1012121E0174A1432914201D156
:1016800010211BE0144A2832914201D1891515E03E
:10169000114A3C32914201D189140FE00E4A503276
:1016A000914202D14FF4803108E00B4A64329142FA
:1016B00002D14FF4801101E04FF08071064A083AE0
:1016C0005160012180F82110002180F82010416B29
:1016D00001B18847204610BD080002402DE9F84FAF
:1016E000DFF8B8910024A9F1040B23460F2709F174
:1016F000040AABF1040EC9E00125A5402A40AA4224
:101700007DD1674ED1F804C0ACEB0608B44532D0A9
:1017100014DCBCF1030F3AD009DCBCF1000F2AD075
:10172000BCF1010F1CD0BCF1020F31D11DE0BCF1A6
:10173000110F17D0BCF1120F2AD119E0B8F5881F8C
:1017400019D006DCB8F5803F15D0B8F5801F1FD141
:1017500011E0B8F5001F0ED0B8F5041F18D10AE04B
:10176000CB6815E0CB681B1D12E0CB6808330FE097
:10177000CB680C330CE08B682BB1012B4FF00803C6
:1017800003D0456104E0042302E0056100E000238A
:10179000FF2A01D8064601E000F104064FEA84055D
:1017A00001D9A5F12005D6F8008007FA05FC28EA42
:1017B0000C0803FA05F548EA0508C6F800804D68EC
:1017C000ED0062D5374DAE6946F00106AE61AD69F8
:1017D00024F0030605F001050095334D06EB050CDA
:1017E000DCF80850A607360F07FA06F825EA0805C0
:1017F000DFF8B880404503D14FF0000817E044E01F
:10180000DFF8AC80404502D14FF001080FE0DFF86F
:10181000A480404502D14FF0020808E0DFF898802C
:10182000404502D14FF0030801E04FF0040808FAE8
:1018300006F848EA0508CCF808804D68D9F8006039
:10184000ED024D4601D5164300E096432E604D68EB
:10185000DAF80060AD02554601D5164300E0964324
:101860002E604D68DBF80060AD035D4601D5164380
:1018700000E096432E604D68DEF80060ED0375468B
:1018800001D5164300E096432E60641C0D682A467D
:10189000E5407FF431AFBDE8F88F00000804014057
:1018A000000011100010024000000140000801403B
:1018B000000C014000100140001401408068084005
:1018C00000D0012070470AB1016170470904FBE7AD
:1018D00001488068704700001400002002488168B9
:1018E000027811448160704714000020074810B549
:1018F000016841F010010160032000F07BF80F2027
:1019000000F006F800F024F8002010BD002002408E
:1019100070B50D4D04464FF47A712878B1FBF0F0A4
:101920000A490968B1FBF0F000F058FB48B9102CE7
:1019300007D200222146501E00F03CF800206C60C7
:1019400070BD012070BD00001400002020000020A8
:101950000F4808B5816941F001018161816901F099
:1019600001010091C16941F08051C161C06900224B
:1019700000F0805000900F21901E00F01BF80548E9
:10198000416821F0E06141F00071416008BD000054
:101990000010024000000140002809DB00F01F0297
:1019A000012191404009800000F1E020C0F80011C1
:1019B00070470000F0B40E4B1B680C46C3F30223C3
:1019C000C3F10705042D00D90425191D072901D2EB
:1019D000002300E0DB1E012606FA05F1491E214026
:1019E00099409E40761E16403143F0BC02F089BB00
:1019F0000CED00E0064900F0070208684FF6FF030F
:101A0000184040EA0220034A104308607047000073
:101A10000CED00E00000FA052DE9F84305460078DA
:101A2000354CC00754D0E0690026C00008D4E069F6
:101A300040F08050E061E069012600F080500090A5
:101A40002E480168C90512D40168804641F48071AE
:101A50000160FFF73DFF074605E000BFFFF738FFD5
:101A6000C01B642823D8D8F80000C005F6D5206A2A
:101A700010F4407021D0A98801F4407181421CD03B
:101A8000206A1F49012220F440700A6000220A6087
:101A90002062C00711D0FFF71BFF074641F28838CC
:101AA00008E000BFFFF714FFC11B414502D9032026
:101AB000BDE8F883206A8007F4D5206A696820F4BD
:101AC0004070084320621EB1E06920F08050E06160
:101AD0002878800705D56068A96820F4404008434D
:101AE00060602878C00605D56068E96820F4800049
:101AF000084360600020DBE70010024000700040F7
:101B0000400442422DE9F0470F46050061D0434EA4
:101B1000306800F00700B84209D2306820F00700B2
:101B200038433060306800F00700B84251D128686F
:101B30003B4C810712D5400703D5606840F4E06054
:101B400060602878000703D5606840F460506060EA
:101B50006068A96820F0F000084360602878C0073A
:101B600028D06868012810D02168022810D0890781
:101B700000292EDA616821F0030101436160FFF75B
:101B8000A7FE804641F288390DE021688903EFE71E
:101B90008901EDE7FFF79CFEA0EB0801494502D95A
:101BA0000320BDE8F0876068696800F00C00B0EBC6
:101BB000810FEFD1306800F00700B8420BD93068D0
:101BC00020F0070038433060306800F00700B8426A
:101BD00001D00120E5E72878400705D56068E9686D
:101BE00020F4E060084360602878000706D560684C
:101BF000296920F4605040EAC100606000F038F8C4
:101C00006168084AC1F30311515CC8400649086085
:101C100006480068FFF77CFE0020C2E70020024073
:101C200000100240DE68000820000020180000209C
:101C30000448054900684968044AC1F30221515C1F
:101C4000C84070472000002000100240EE680008E5
:101C50000448054900684968044AC1F3C221515C3F
:101C6000C84070472000002000100240EE680008C5
:101C70000E4A51680E4801F00C03042B11D0082BBA
:101C80000FD10C48C1F38343C903C05C0AD5516826
:101C9000084AC1F34041921E515C054A5043B0FBD3
:101CA000F1F07047044948437047000000100240BB
:101CB00000127A00CE68000800093D002DE9F84FB7
:101CC000040070D02078C04DC00749D06868C0F3C8
:101CD0008100012807D06868C0F38100022809D17B
:101CE0006868C00306D52868800339D56068002875
:101CF000E7D035E06068B0F5803F0BD010B1B0F5AB
:101D0000A02F11D0286820F480302860286820F4A3
:101D1000802002E0286840F480302860606890B13C
:101D2000FFF7D6FD06460AE0286840F480202860C8
:101D3000F0E700BFFFF7CCFD801B642873D828684C
:101D40008003F7D50CE0FFF7C3FD064605E000BFB2
:101D5000FFF7BEFD801B6428F0D828688003F7D405
:101D600020789A4E80074FF001094FF0000839D5CE
:101D7000686810F00C0F07D06868C0F38100022873
:101D800009D16868C00306D42868800714D5206983
:101D9000012808D110E02069B0B1C6F80090FFF723
:101DA00097FD074605E00AE1FFF792FDC01B0228F8
:101DB000C4D828688007F7D52868616920F0F80042
:101DC00040EAC10028600DE0C6F80080FFF780FD02
:101DD000074604E0FFF77CFDC01B022823D82868D3
:101DE0008007F7D4207800072CD57948A169D9B1AC
:101DF000C0F80090FFF76CFD074604E0FFF768FDB0
:101E0000C01B02280FD8686A8007F7D571484FF4C5
:101E1000FA510068B0FBF1F0009000BF0098411E3D
:101E20000091FAD20EE080E0C0F80080FFF750FD8C
:101E3000074604E0FFF74CFDC01B022875D8686A0E
:101E40008007F7D42078400760D5E8690027C000F4
:101E500008D4E86940F08050E861E869012700F0A3
:101E6000805000905C480168C90513D4016883461E
:101E700041F480710160FFF72BFD824606E000BF50
:101E8000FFF726FDA0EB0A0064284ED8DBF800001F
:101E9000C005F5D5E06801280AD008B1052813D09F
:101EA000286A20F001002862286A20F0040002E07D
:101EB000286A40F001002862E06841F2883B98B14E
:101EC000FFF706FD82460BE0286A40F00400286216
:101ED000EEE700BFFFF7FCFCA0EB0A0159455AD81A
:101EE000286A8007F6D50CE0FFF7F2FC824605E091
:101EF000FFF7EEFCA0EB0A0159454CD8286A800791
:101F0000F6D41FB1E86920F08050E861E06988B339
:101F10006968C1F38101022944D00228C6F86080B3
:101F200004D0FFF7D5FC044638E034E0FFF7D0FCDE
:101F3000074604E0FFF7CCFCC01B02282BD828681A
:101F40008001F7D4206AB0F5803F05D16868A168A8
:101F500020F4003008436860D4E908010843696848
:101F600021F4741108436860C6F86090FFF7B0FC74
:101F7000044606E025E000BFFFF7AAFC001B02288C
:101F800009D828688001F7D51BE000BFFFF7A0FC47
:101F9000001B022802D90320BDE8F88F28688001C1
:101FA000F4D40EE00128F7D06868226A00F480318A
:101FB000914204D1616A00F47010884201D001207E
:101FC000EAE70020E8E7000000100240000042427B
:101FD00080044242200000200070004010B5401EE6
:101FE000B0F1807F01D3012010BD4FF0E02460618B
:101FF0000F21601702F085F80020A0610720206102
:10200000002010BD70B590F83C20012A26D0012494
:1020100080F83C40022280F83D2003685A689D68A1
:1020200022F070060A6832435A600D4B02689A42E9
:1020300008D0B2F1804F05D00A4B9A4202D00A4B29
:102040009A4204D1496825F080031943916080F8D1
:102050003D40002180F83C10084670BD022070BD54
:10206000002C0140000400400008004010B50400AE
:1020700003D094F83D0010B107E0012010BD00200E
:1020800084F83C00204600F01FF8022084F83D0050
:10209000211D206801F0CCFD012084F8460084F861
:1020A0003E0084F83F0084F8400084F8410084F842
:1020B000420084F8430084F8440084F8450084F822
:1020C0003D00002010BD000008B50068B0F1804F51
:1020D00008D10548C16941F00101C161C06900F042
:1020E0000100009008BD00000010024070B50446D9
:1020F00090F83C000025012817D0012684F83C60A8
:10210000022084F83D002068826822F0770222F4E1
:102110007F4282600868502838D00DDC20284FD0DC
:1021200005DC90B3102811D14AE0022070BD3028A0
:1021300046D040280AD13BE060282FD070280DD02F
:10214000B0F5805F03D0B0F5005F12D0012584F8B0
:102150003D60002084F83C00284670BDCB68D1E982
:102160000121206801F0ADFD2068816841F0770110
:1021700009E0CB68D1E90121206801F0A2FD2068C7
:10218000816841F480418160E1E719E0CA684968EB
:10219000206801F04BFE5021206806E0CA684968BB
:1021A000206801F054FE6021206801F094FDCEE724
:1021B000CA684968206801F039FE40212068F4E7C8
:1021C000226801461046F0E700B585B00021009175
:1021D0000191029103910068B0F1804F11D10A483A
:1021E000816941F0040181618069694600F0040061
:1021F0000490042000900220019003900348FFF710
:102200006DFA05B000BD000000100240000801405A
:1022100070B5044690F83C0000260D4601280FD00A
:10222000012084F83C006AB1042A1DD0082A2FD06E
:102230000C2A3FD00126002084F83C00304670BDB7
:10224000022070BD206801F04FFD2068816941F0D7
:10225000080181612068816921F0040181612068A1
:1022600081692A69114311E0206801F065FD206849
:10227000816941F4006181612068816921F4806194
:102280008161206881692A6941EA02218161D2E77E
:10229000206801F07DFD2068C16941F00801C1613D
:1022A0002068C16921F00401C1612068C1692A69FF
:1022B000114311E0206801F097FD2068C16941F4E5
:1022C0000061C1612068C16921F48061C161206839
:1022D000C1692A6941EA0221C161ACE710B5040075
:1022E00003D094F83D0010B107E0012010BD00209C
:1022F00084F83C00204600F01EF8022084F83D00DF
:10230000211D206801F094FC012084F8460084F827
:102310003E0084F83F0084F8400084F8410084F8CF
:10232000420084F8430084F8440084F8450084F8AF
:102330003D00002010BD704710B50446022249B18F
:1023400004290ED0082913D094F84100012816D092
:10235000012010BD94F83E000128F9D184F83E20F8
:102360000FE094F83F000128F2D184F83F2008E004
:1023700094F840000128EBD184F8402001E084F873
:1023800041200122206801F08FFC0F49206888421B
:1023900003D1426C42F4004242642068884208D073
:1023A000B0F1804F05D00949884202D008498842DF
:1023B00004D1816801F00701062903D0016841F0CA
:1023C00001010160002010BD002C0140000400400C
:1023D0000008004070477047F8B501680446086877
:1023E000CA684B6910F00F0F4FF000055AD003F088
:1023F000010602F49077374365D0C10705D0D105B7
:1024000003D5616C41F001016164410705D5D9072D
:1024100003D0616C41F002016164810705D5D907E1
:1024200003D0616C41F004016164010707D502F03B
:102430002001314303D0616C41F008016164616C9B
:1024400000293BD0800604D5900602D5204601F035
:102450003FFD20684069616CC0F3801001F0080105
:10246000014320462BD001F00CFD20684069400656
:1024700021D52068143050E8001F21F0400140E8C9
:102480000012002AF5D1E06BA8B16D494163E06B01
:10249000FFF7D8F8002811D0E06B416B01B0BDE820
:1024A000F040084783060ED593060CD52046BDE8BC
:1024B000F84001F00DBD2046FFF78DFFF8BDFFF796
:1024C0008AFF6564F8BD266B2023012E7CD1C606E9
:1024D0007AD5D60678D508684868009048694FF0E4
:1024E0000206400640D5E16B086840680004000C15
:1024F000E8D0A28D8242E5D9E085886920282DD0D8
:1025000020680C3050E8001F21F4807140E8001270
:10251000002AF5D12168143151E8000F20F00100A4
:1025200041E80002002AF5D12068143050E8001F6D
:1025300021F0400140E80012002AF5D184F8423031
:10254000256320680C3050E8001F21F0100140E89E
:102550000012002AF5D1E06BFFF750F86663A08DFA
:10256000E18D401A81B22AE0A08DE18D401A81B23E
:10257000E08D0028A6D00029A4D022680C3252E8B1
:10258000000F20F4907042E80007002FF5D120687A
:10259000143050E8002F22F0010240E80027002FFD
:1025A000F5D184F84230256320680C3050E8002FC4
:1025B00022F0100240E80023002BF5D1666320468C
:1025C000FFF708FFF8BDFFE705062BD5150629D54F
:1025D00094F841002128F5D1A068B0F5805F01D1C1
:1025E0002069B0B1206A411C2162216800784860EE
:1025F000E08C401E0004000CE084E3D12068C16838
:1026000021F08001C1602068C16841F04001C160D3
:10261000D8E7206A0088C0F308004860206A801C60
:102620002062E5E74006CDD55006CBD5CA682046E6
:1026300022F04002CA6084F8413000F0F9F8C1E7A6
:10264000733E000870B5040004D094F841000025E2
:1026500010B106E0012070BD84F84050204600F023
:1026600023F8242084F841002068C16821F4005137
:10267000C160204601F08EFC2068016921F4904180
:1026800001612068416921F02A0141612068C16827
:1026900041F40051C1606564202084F8410084F851
:1026A00042006563002070BD30B585B00024009401
:1026B0000194029403940068184988422CD1184868
:1026C000816941F480418161816901F48041049113
:1026D000816941F0040181618069124D00F00400BC
:1026E00004904FF4007000900220019003200390AA
:1026F00069462846FEF7F2FF2815CDE90004694631
:1027000028460294FEF7EAFF002205212520FFF764
:1027100051F92520FFF740F905B030BD00380140E0
:10272000001002400008014090F84230202B01D0F8
:102730000220704721B11AB10023036301F086BC67
:102740000120704730B400680D49884216D10D4809
:10275000418840F2FF32914209D2437841880A4AC7
:102760005418491C418023704088002111540549A8
:10277000012230BC491C0548FFF7D6BF30BC70476A
:1027800000380140A8000020803100203C010020DA
:102790002DE9F843044690F84100984616460D4648
:1027A000202802D00220BDE8F88385B17EB1002048
:1027B0006064212084F84100FFF78AF8A6848146EE
:1027C000E684A0682027B0F5805F02D003E00120F6
:1027D000E9E7206910B12E4600250EE000260CE046
:1027E0008021204601F04DFCA8B9C6B116F8010BB6
:1027F00021684860E08C401EE084E08C4B464FF03E
:102800000002CDF800800028EAD14FF040012046B8
:1028100001F037FC40B184F841700320C3E735F87C
:10282000020BC0F30800E3E784F841700020BAE728
:102830007047000070B5424D06462878012820D127
:10284000022E1ED16878FF2804D0032816D2401C1F
:10285000687016E002F056FF6968411AB1F5FA7F18
:1028600002D2A978491C00E00121A9706860C8B2B1
:10287000022806D300206870A87070BDFF20687021
:1028800070BD6A78FF2A2FD02D4C2E49083426B10E
:10289000FF2A29D0012E1ED024E032B1012A09D00E
:1028A000022A0CD0032A0FD01CE020783228E7D26D
:1028B000401C28E060785A28E2D2401C29E0A07829
:1028C0005A28DDD2401C2AE01F4A60689042D7DABD
:1028D00003F0A0FC2BE092B1012A16D0022A1AD0F4
:1028E000032A1ED0FF2ACBD11EB3012EC8D12878CF
:1028F0000321401CB0FBF1F201FB12001CE0207828
:102900000028BDD0401E207070BD60780028FBD02C
:10291000401E607070BDA0780028FBD0401EA070E3
:1029200070BD6068B0F5000FFADB03F047FF606030
:1029300070BD287810B1401E287070BD0220FBE7E2
:10294000B00000200000204100FF7F47FEE70000AC
:102950007FB5002002904FF400541120CDE90040D3
:102960000320124D039069462846FEF7B7FE002269
:1029700021462846FEF7A7FF0520FEF7ADF9012204
:10298000160331462846FEF79EFF0520FEF7A4F900
:10299000002231462846FEF796FF04B0214628461D
:1029A000BDE870400122FEF78EBF0000000C014020
:1029B0007FB5002002904FF400541120CDE9004073
:1029C00003200F4D039069462846FEF787FE01223B
:1029D00021462846FEF777FF0520FEF77DF9012204
:1029E000140321462846FEF76EFF0520FEF774F912
:1029F00004B021462846BDE870400022FEF763BFC0
:102A0000000C01402DE9FF410024174E4FF4005700
:102A1000019402946946304600970394FEF75EFEE7
:102A20000025B846B714012239463046FEF74BFF61
:102A30000520FEF751F96006040E41463046FEF7C8
:102A40003DFF08B144F00104002239463046FEF74C
:102A50003AFF0520FEF740F96D1CEDB2082DE2D3D8
:102A600004B02046BDE8F081000C01402DE9FF4193
:102A70000546002002904FF400571120CDE9007068
:102A80000320174E039069463046FEF727FE0024C8
:102A9000B846B714002239463046FEF714FF280620
:102AA00001D5012200E0002241463046FEF70BFF2F
:102AB0000520FEF711F9012239463046FEF703FFE3
:102AC0000520FEF709F9002239463046FEF7FBFEE5
:102AD0006806641C050EE4B2082CDBD3BDE8FF8158
:102AE000000C01407FB5002002904FF400541120EB
:102AF000CDE900400320124D039069462846FEF7B9
:102B0000EDFD012221462846FEF7DDFE01221603D7
:102B100031462846FEF7D7FE0520FEF7DDF80022F5
:102B200021462846FEF7CFFE0520FEF7D5F804B073
:102B300031462846BDE870400022FEF7C4BE0000C2
:102B4000000C01407FB5002002904FF4005411208A
:102B5000CDE9004003200F4D039069462846FEF75B
:102B6000BDFD002221462846FEF7ADFE01221103DD
:102B70002846FEF7A8FE0520FEF7AEF80122214602
:102B80002846FEF7A0FE04B00520BDE87040FEF721
:102B9000A3B80000000C01402DE9FF410024164EAF
:102BA0004FF4005501940294694630460095039411
:102BB000FEF794FD0122170339463046FEF783FEE7
:102BC0000520FEF789F809E0641CE4B2FA2C05D967
:102BD000FFF7B8FF012004B0BDE8F0812946304678
:102BE000FEF76CFE0028EFD1002239463046FEF792
:102BF0006AFE0020EFE70000000C014010B508213C
:102C00000348FFF799FBBDE81040002000F002B830
:102C1000F4000020B0F57A7F01D340F2E73002499A
:102C20000968C86370470000F40000203EB5002129
:102C30001148009101910F4A0291026001248160C4
:102C4000047301754FF460220461C2614160FEF7B4
:102C5000BBFB08B1FEF734FB07200094CDE901402F
:102C600069460548FEF72EFB002801D0FEF728FB39
:102C70003EBD000000240140C40000207CB50022BD
:102C80000C21052002F05AFA254900220860012192
:102C90000A2002F053FA2349002208600C21052083
:102CA00002F04CFA2049002208600C21052002F0B5
:102CB00045FA1E491E4A086000211E4801F09EFA8E
:102CC0001D49002418250860CDE900544FF4807692
:102CD0002346324619A11B4802F0AEFCCDE9005450
:102CE0000023802218A11A4802F0A6FCCDE9005466
:102CF0000023324617A1194802F09EFCCDE900548A
:102D00000023720016A1184802F096FCCDE9005489
:102D10000023324615A1174802F08EFC7CBD00004E
:102D20000000002004000020080000200C0000200B
:102D3000A8680008113600081000002053656E7363
:102D40006F720000F13A0008496E7075740000005F
:102D5000B1360008446973706C6179001936000857
:102D60004E6574776F726B0045370008416C617275
:102D70006D0000004D3500082DE9F04186B00024BB
:102D800029480094019402940394816941F0100150
:102D90008161816901F010010491816941F0200194
:102DA0008161816901F020010491816941F0040190
:102DB0008161816901F004010491816941F0080198
:102DC00081618069012200F00800184F55030490CA
:102DD00029463846FEF777FDDFF854804FF44076F9
:102DE000012231464046FEF76EFD0220CDE9024049
:102DF00000951125694601953846FEF76FFC0B20BA
:102E0000CDE900040120029069464046FEF766FCC9
:102E10000320CDE90240CDE9006569464046FEF752
:102E20005DFC06B0BDE8F0810010024000100140DA
:102E3000000C014010B58EB000240794089409944A
:102E40000A940B941C2168460C94FDF7FBFB1E486A
:102E50004FF0804101604721C0E9011440F2E731A1
:102E6000C0E9031480218161FFF700F908B1FEF782
:102E700027FA4FF48050079007A91348FFF736F957
:102E800008B1FEF71DFA1048FFF728FA08B1FEF75F
:102E900017FA0B940BA90C480C94FFF7B3F808B180
:102EA000FEF70EFA6020CDE900040294082269467C
:102EB00005480494FFF7ACF908B1FEF701FA02489F
:102EC000FFF782F90EB010BDF40000200C4810B5D9
:102ED0000A4901604FF4E1314160002181600C2218
:102EE000C160C0E904128161C161FFF7ABFB00283A
:102EF00003D0BDE81040FEF7E3B910BD0038014033
:102F00003C010020FEE7FEE710B50021074C0A4611
:102F1000002004EBC1131A54401CC0B28028FAD31D
:102F2000491CC9B20829F3D310BD00008037002026
:102F3000F0B50B4424E0044685181DE07F2C19D819
:102F4000002917DB3F2915DCCE1701EB56764FEA37
:102F5000E60C0D4F26F0070607EBCC172744A1EB34
:102F6000060E97F800C0012606FA0EF62CEA060CAB
:102F700087F800C0641C24B2A542DFDC491C09B2FA
:102F80008B42D8DCF0BD00008037002010B5002057
:102F90004FF47A720021491C9142FCD3401C9042AC
:102FA000F8D3012000F026FABDE81040012000F01F
:102FB0002DBA70B500240646802525FA04F030406D
:102FC00000D0012000F022FA012000F013FA0020C6
:102FD00000F010FA641CE4B2082CEED3012000F0DB
:102FE00009FABDE87040002000F004BA10B50120D5
:102FF00000F00CFA012000F0FDF9002000F006FAC4
:10300000BDE81040002000F0F5B910B5002000F038
:10301000FDF9012000F0EEF9BDE81040012000F0BC
:10302000F5B910B5FFF7B2FFAE2000F0FBF9D520DF
:1030300000F0F8F9802000F0F5F9A82000F0F2F98E
:103040003F2000F0EFF9D32000F0ECF9002000F071
:10305000E9F9402000F0E6F9A12000F0E3F9C820EA
:1030600000F0E0F9DA2000F0DDF9122000F0DAF9E2
:10307000812000F0D7F9CF2000F0D4F9D92000F05A
:10308000D1F9F12000F0CEF9DB2000F0CBF93020AF
:1030900000F0C8F9A42000F0C5F9A62000F0C2F99C
:1030A0008D2000F0BFF9142000F0BCF9AF2000F033
:1030B000B9F9FFF729FFBDE8104000F087B90246D3
:1030C000012000E05043491EFCD2704710B50C4669
:1030D00040F0B00000F0A6F9102040EA141000F013
:1030E000A1F904F00F00BDE8104000F09BB900000A
:1030F00008B5082B0DD0062B0AD10A4B02EB420271
:1031000003EB4202C03A00920823062200F06EF858
:1031100008BD054B03EB0212A2F5007210230092CA
:103120000822F3E7E66E0008F66800082DE9FF5F65
:1031300082B014461D46DDE911B60746002213464B
:1031400020462946DDF8408002F0B2FE334605D81D
:103150002B2238460399FFF7CBFF06E02D22384695
:103160000399FFF7C5FF85F000452046294602F088
:1031700025FD824602F04FFD22462B4602F028FF35
:1031800005460C4659460A20FFF799FF814602F092
:1031900042FD2A46234602F08DFD01F0BBFC02F001
:1031A0000DFDB0FBF9F1044601EB0A02B81900B2BB
:1031B00043460096039900F077F808F1010000FB00
:1031C000067000B233462E220399FFF791FF08F1F3
:1031D000020000FB067000B25B462246009603998F
:1031E00000F062F806B0BDE8F09F00002DE9F04F56
:1031F0001F4616460D4682460024FFF799FE7F1EA5
:10320000F81707EB50700121DFF898B001EBE007E9
:1032100043E000203DE000BF0AEB00037F2B36D8DF
:10322000E91705EB5171CA1021F00701691A002D49
:1032300003DA521E083112B209B202EB0409B9F1E5
:10324000070F0ED8099A04FB06F802440BEBC91EBF
:1032500018F802201EF803C08A404CEA020C0EF84F
:1032600003C009F10102072A11D80BEBC91202EBC6
:103270000308099A04FB06FC024498F880301CF805
:103280000220C1F10801CA40134388F88030401C75
:10329000C0B2B042C0D3641CE4B2A742B9DCBDE8FE
:1032A000F08F0000803700202DE9F04700241D46F4
:1032B00090468A4681460A27089E14E0291B0A2068
:1032C000491EFFF7FCFEB8FBF0F0B0FBF7F107FB7F
:1032D000110204FB069000B2334651463032FFF72C
:1032E00007FF641CE4B2AC42E8D3BDE8F0870000FD
:1032F0002DE9FF4F002583B09B4690462C46AA46F9
:10330000DFF8C09056E010068DF8042005F10105A5
:103310000DD40398ADB220448DF805A000B25B46F1
:103320000499FFF7E5FE04EB0B0084B242E0A8B27B
:1033300018F80010002941D0401C8DF8051085B206
:103340008DF806A0002606E0384601A9FDF7CCF965
:1033500068B1761CB6B2C6EBC60000EB800101EB8B
:103360000900074618A1FDF7BFF90028ECD1BBF111
:10337000080F03D0BBF1060F1CD111E0C6EBC6004D
:1033800000EB800101EB0900C01C009003981023A2
:10339000204400B21A460499FFF728FF103408E0D1
:1033A00003980623204400B23F220499FFF7A0FEB1
:1033B000A41DA4B218F80520002AA4D107B0BDE8C6
:1033C000F08F0000207100080000000070B5084D6B
:1033D000002400212046FFF779FE05EBC410802170
:1033E00000F031F8641CE4B2082CF2D370BD000088
:1033F00080370020044B4FF4807108B1012200E0B7
:1034000000221846FEF75FBA000C0140044B4FF44F
:10341000007108B1012200E000221846FEF753BAFD
:10342000000C014010B50446FFF7E0FD7820FFF7DF
:10343000C0FD0020FFF7BDFD2046FFF7BAFDBDE847
:103440001040FFF7E2BD70B50D460646FFF7CEFD12
:103450007820FFF7AEFD4020FFF7ABFD002404E02D
:10346000305DFFF7A6FD641CE4B2AC42F8D3BDE8C2
:103470007040FFF7CABD000010B586B00020029072
:103480001048816941F00801816180690E4C00F0AB
:10349000080004904FF44050009011200190032048
:1034A000039069462046FEF719F9012211032046D0
:1034B000FEF709FA012251032046FEF704FA06B08E
:1034C00010BD000000100240000C01400148FEF752
:1034D00035B80000C40000202DE9F041040016D0EA
:1034E000002635464FF47A771548FDF769FF064404
:1034F0003846FDF7F1FB6D1CEDB2102DF4D3C6F389
:103500000F1040F61C41884204D3002014E0012033
:10351000BDE8F081B0F5487F01D864200CE0A0F64A
:103520001C40404202F0E2FF064902F0E1FE06497B
:1035300003F03CF802F0BAFF20700020E8E700003A
:10354000C400002000C00F450000C8420EB5FFF7C0
:1035500055FB40F6B83001F05BFC2A4E2A4D2B4F4C
:1035600040F6C41842466946306801F08FFF0128D2
:10357000F8D19DF80800002460B19DF8000029787A
:10358000884200D901249DF801006978884201D25F
:10359000B4B105249DF8090030B19DF80200A97866
:1035A000884201D274B105249DF80A0078B1696897
:1035B000019803F0C7F80AD234B105243C701BE02F
:1035C0000224E7E70324EFE704243C7011E03C7099
:1035D000062CC7D2DFE804F00305070A0D1000200F
:1035E0000CE0C8200AE04FF4C87007E04FF41670F2
:1035F00004E04FF4487001E040F2E730FFF70AFBC7
:10360000B0E700000C000020B8000020AC00002053
:10361000012000F0B7FDFBE71FB50024FFF701FD17
:10362000002106231BA20846FFF762FEFFF7CEFE2D
:103630004FF4FA7001F0ECFB1A4D1B4E1B4F0022A9
:103640006946286801F022FF012800D101240022E8
:1036500003A9306801F01AFF012807D0ACB138780F
:1036600048B101280BD002280ED10BE09DF80C00C8
:10367000FFF7E0F8F3E76846FDF75CFB04E0FDF7D1
:10368000D3FB01E0FDF77CFC0024142001F0C0FB1B
:10369000D5E7000053797374656D205265616479D4
:1036A000000000000000002004000020B000002006
:1036B0001CB5002502F026F8204F214E0090002472
:1036C00001213846FEF7FAF800B9012402213846F4
:1036D000FEF7F4F808B944F0020408213846FEF772
:1036E000EDF808B944F0040424EA0505E80708D019
:1036F00000208DF804000346024601A9306801F05D
:10370000B5FDA80708D501208DF8040000231A464E
:1037100001A9306801F0AAFD680708D502208DF8DC
:10372000040000231A4601A9306801F09FFD2546D8
:103730003221684601F092FBC1E70000000C014015
:1037400004000020C4B040F6B83001F061FBFDF782
:1037500067FD7B4C01274FF4807841F288394FF4A4
:10376000FA6527702A4677A177A0FDF7EFFC08B12C
:1037700028465FE0022643F6982A26702A4671A161
:1037800072A0FDF7E3FC08B1284608E0524672A19A
:1037900074A0FDF7DBFC28B1801C09D0484601F07D
:1037A00037FBEAE703264FF4007A4FF4FA5B02E0B6
:1037B0004FF47A703EE02670724973A0CDE90001A3
:1037C00074A376A251468048FCF752FD5A465DA18B
:1037D0007D48FDF7BBFC28B1801C24D0484601F091
:1037E00017FBE8E74FF0040A40F25B7B42F21076E9
:1037F00084F800A02A4653A174A0FDF7A7FC7BA380
:103800007FA280218448CDF800B0FCF731FD32461C
:103810004CA18148FDF79AFC78B1801C03D0284662
:1038200001F0F6FAE4E72A4646A17CA0FDF78EFCFB
:103830004FF4FA7001F0ECFA93E72A4641A17BA01D
:10384000FDF784FC18B1284601F0E2FAF5E7DFF84D
:1038500018A24FF0050B00BF84F800B042F21072BE
:1038600040A9DAF8000001F011FE012808D040F666
:10387000B83234A134A0FDF769FC0028ECD053E045
:1038800041466846FDF714FC88B178A16846FCF70C
:103890005BFE08B1002205E079A16846FCF754FE02
:1038A00028B101224FF400517A48FEF70CF84198F4
:1038B00002F0E0FD064602F019FE419902F073FFA6
:1038C000754902F073FE4FF07C5102F0A3FC02F048
:1038D000D1FD9DF802110022CDE904019DF80101FE
:1038E000CDE90226CDE900204B489DF800316B4A16
:1038F00041468030FCF7BCFC0646009068A373A2EA
:1039000080217948FCF7B4FC4A4678A17648FDF757
:103910001DFC48B94048B1B28030FDF771FC494602
:1039200008A0FDF787FC28B12A4606A13BA0FDF7B9
:103930000DFC16E74FF47A7001F06AFA8CE700008C
:10394000C00000204F4B00004154000041542B4365
:10395000574D4F44453D31005749464920474F5444
:103960002049500041542B43574A41503D227A731D
:1039700067222C225A736734363036313440404047
:1039800022000000347200086566486F79355435AE
:103990004234000054657048756D690041542B4DE8
:1039A000515454555345524346473D302C312C22F7
:1039B0002573222C222573222C222573222C302CB5
:1039C000302C222200000000803B002041542B4D6F
:1039D000515454434F4E4E4346473D302C36302CC5
:1039E000302C22222C22222C302C30006D71747449
:1039F000732E6865636C6F7564732E636F6D000062
:103A000041542B4D515454434F4E4E3D302C2225A2
:103A100073222C25642C3100803D002041542B4D15
:103A2000515454434C45414E3D30000041542B4DC0
:103A30005154545355423D302C22247379732F65D1
:103A400066486F7935543542342F54657048756D2A
:103A5000692F7468696E672F70726F706572747900
:103A60002F736574222C31000800002022636F6ED2
:103A700074726F6C5F6C6564223A747275650000D5
:103A800022636F6E74726F6C5F6C6564223A66615C
:103A90006C736500001001400000C842B472000859
:103AA000247379732F6566486F7935543542342F06
:103AB00054657048756D692F7468696E672F7072F0
:103AC0006F70657274792F706F73740041542B4D51
:103AD0005154545055425241573D302C22257322A7
:103AE0002C25642C302C3000003F00203E000000CC
:103AF0000EB54FF4FA67384601F08AF9FDF72EF853
:103B0000FCF7E8FFFFF7E2FCBA460125204FDFF89B
:103B10008480DFF884906C46002600BF01F06AFACA
:103B2000611C6846FDF786F840B38DF80860201DDB
:103B3000FCF7A8FF28B38DF80A6000BF01F0C4FEAF
:103B4000A01CFFF7C9FCF8B18DF8096000231A46E4
:103B50006946386801F08AFB00231A466946D8F89E
:103B6000000001F083FB00231A466946D9F80000E3
:103B700001F07CFB504601F04BF9CFE78DF808507F
:103B8000D5E78DF80A50D9E78DF80950DEE7000037
:103B900000000020080000200C00002010B5FDF7F8
:103BA0009DFE01F0A1FD012803D0BDE8104001F009
:103BB000AFBA10BD30B593B028216846FCF742FD7E
:103BC00014210AA8FCF73EFD002501200F95109551
:103BD0001195010412958DE8230004904FF4E01034
:103BE000CDE90810022407946846FEF767F808B18B
:103BF00072B6FEE70AA90F2081E831004FF4806019
:103C0000CDE90D0502210AA8FDF77CFF08B172B6C7
:103C1000FEE74FF4004011900F940FA8FDF7FCFE53
:103C2000002801D072B6FEE713B030BD7047000027
:103C3000F0B50268194B1A4C1A4D4FF08047984264
:103C400005D0B84203D0A04201D0A84203D122F04F
:103C500070064A683243984205D0B84203D0A04269
:103C600001D0A84203D122F44074CA6822434C69AF
:103C700022F08002224302608A68C2620A6882627D
:103C8000984201D109690163012141610169C907B4
:103C900003D0016921F001010161F0BD002C014058
:103CA000000400400008004010B501F01F0301218E
:103CB000046A99408C430462016A9A40114301628C
:103CC00010BD10B5846842EA032224F47F440A43FD
:103CD0002243826010BD826822F070020A4342F0E3
:103CE000070181607047000030B5036A026A22F064
:103CF000010202624268846924F073050C682C4357
:103D000023F002058B682B430A4DA8420BD123F008
:103D10000805CB6822F440722B434D6923F004035D
:103D200015438A692A43426084614968416303629A
:103D300030BD0000002C014030B5026A036A23F058
:103D400010030362436884690D6824F4E64444EA7E
:103D500005248D6822F0200242EA05120B4DA8428C
:103D60000ED1CD6822F0800242EA05124D6923F49B
:103D7000406343EA85038D6922F0400243EA8503EC
:103D80004360846149688163026230BD002C014058
:103D900030B5036A026A22F4807202624268C46922
:103DA00023F4007324F073050C682C438D6843EAF8
:103DB00005230C4DA8420ED1CD6823F4006343EADD
:103DC00005234D6922F4405242EA05128D6923F41D
:103DD000806342EA05124260C4614968C1630362BC
:103DE00030BD0000002C014030B5046A026A22F4A4
:103DF000805202624268C3690D6823F4E64343EAD5
:103E000005238D6824F4005444EA0534064DA84285
:103E100004D14D6922F4804242EA85124260C361B6
:103E200049680164046230BD002C014010B5036A8A
:103E3000046A24F001040462846924F0F00444EA72
:103E4000021423F00A020A438461026210BD10B515
:103E5000036A046A24F010040462846923F0A00356
:103E600024F4704444EA023243EA0111826101629F
:103E700010BD10B5406A0021C185C184FEF7ABFAC0
:103E800010BD01680C3151E8002F22F4907241E816
:103E90000023002BF5D10168143151E8002F22F0E6
:103EA000010241E80023002BF5D1016B012909D162
:103EB00001680C3151E8002F22F0100241E8002384
:103EC000002BF5D1202180F84210002101637047BA
:103ED00008B590F84210222901D0022008BD82685E
:103EE0004FF480539A4201D1016921B1816A9A420B
:103EF0001BD04AB10AE00268816A5268C2F3080224
:103F00000A80816A891C08E0026972B102685268FD
:103F100002F07F020A70816A491C8162C18D491ECC
:103F20000904090CC18503D01BE002685268F1E75F
:103F30000168CA6822F02002CA600168CA6822F4D7
:103F40008072CA6001684A6922F001024A61202138
:103F500080F8421000214163026B012A03D0FEF772
:103F6000F1FB002008BD016301680C3151E8002F0E
:103F700022F0100241E80023002BF5D101680A6805
:103F8000D20602D50A6849680091818DFEF722FAAF
:103F9000E7E7000070B5044600680169E26821F4B3
:103FA0004051114301612169A068084361690843D8
:103FB0002168CA6841F20C639A430243CA602068D0
:103FC0004169A26921F44071114341611E49206891
:103FD000884202D1FDF73CFE01E0FDF729FE00EB2F
:103FE000C00101EB0012606864218000B2FBF0F3B5
:103FF000B3FBF1F36FF018067343B2FBF0F5B2FBBD
:10400000F0F605EB8305322303EB0515B5FBF1F55F
:10401000B6FBF1F605F0F00505EB0615B2FBF0F680
:10402000B2FBF0F0B0FBF1F06FF01802504306EB7A
:10403000800003EB0010B0FBF1F0216800F00F00EE
:104040002844886070BD000000380140816282858C
:10405000C28500214164222180F84210016921B10A
:104060000168CA6842F48072CA6001684A6942F015
:1040700001024A610068C16841F02001C16000206E
:1040800070472DE9F843984617460D460446089EAA
:1040900024E0701C22D0FDF71BFCA0EB0800B0420E
:1040A0001AD8CEB12068C168490717D5802D15D020
:1040B000402D13D00168C94309070FD401680025BA
:1040C000406800902046FFF7DCFE0820606484F81A
:1040D00040500120BDE8F8830320FBE7206800681A
:1040E00035EA000004D00020B842D2D00020F1E729
:1040F0000120F9E70148FEF76FB900003C010020FC
:10410000FEE70907090E002804DB00F1E02080F833
:104110000014704700F00F0000F1E02080F8141D3B
:10412000704730380A2801D20120704700207047BC
:1041300008B5FDF7DBFB1148816941F001018161A0
:10414000806900F0010000900D48416821F0E061B5
:1041500041F000714160FFF72DFDFEF70DFEFEF707
:1041600065FDFEF7B3FEFEF765FEFCF7C3FD00F04C
:1041700017F8FEF783FD00F025F8FEE70010024077
:104180000000014010B5EFF3058111B16FF0050497
:1041900003E0002408B100F03BFE204610BD000003
:1041A000EFF3058010B16FF0050070470448016817
:1041B00011B14FF0FF3070470121016000207047BE
:1041C0007400002010B5EFF3058010B16FF005000A
:1041D00010BD08480168012902D04FF0FF3010BD22
:1041E000054A002182F8141D0221016000F0BEFE84
:1041F000002010BD740000200BE000E02DE9FF411D
:104200000B464FF00005EFF30581039549BB40B322
:104210008027182100244AB3166806B134469669EF
:104220001EB13146761E382E02D21679F60703D01B
:10423000002004B0BDE8F081566906B1B708D2F895
:1042400008C0BCF1000F0DD0D5685C2D18D31269E1
:104250003AB136B18DE806103A46214601F019FA16
:1042600003900DE0D6685EB912694AB903AACDE998
:104270000012BAB2214601F0DFF9012800D00395FF
:104280000398D6E72DE9F041134C0F460546E66842
:104290002068001D00F088FC681C07D137B1216838
:1042A000BDE8F0410D48091D00F0CEBC2068354442
:1042B000B5424560216805D2A06BBDE8F041091DFB
:1042C00000F0AABC606B091D00F0A6FCA06A854244
:1042D00000D2A562BDE8F081240000207406002011
:1042E0002DE9F041054600F0BBFC2D4CA068401CB8
:1042F000A06020682B4F10B1606930B32BE02560BF
:10430000A068012827D1002606EB860007EB800075
:1043100000F074FC761C382EF6D3234800F06EFCB7
:104320002148143000F06AFC1F48283000F066FC79
:104330001D483C3000F062FC1B48503000F05EFC31
:10434000194860631430A06305E02068E96AC06A18
:10435000884200D82560606A401C60626864E86A30
:104360002169884200D9206100EB800007EB8000C2
:10437000291D00F069FC00F093FC606900280CD056
:104380002068E96AC06A884207D208494FF0805025
:104390000860BFF34F8FBFF36F8FBDE8F08100005F
:1043A00024000020C40100202406002004ED00E0C9
:1043B00038B500F055FC104C2068C8B90F4800F023
:1043C0001DFC0E48143000F019FC0C48E06014305D
:1043D00020610A4B0020F03B009003F150021021B5
:1043E0000A2000F0CCFE206010B105A100F0DAFC3C
:1043F000BDE8384000F054BC600000207807002081
:10440000546D72510000000030B4026C0B46002A5B
:104410000BD0C1681144C1608468A14201D3016816
:10442000C16030BC1846FCF7C0B830BC70472DE9FD
:10443000F041856B174604460026026C82B1C7B175
:10444000E068FCF7B2F8E168206C091AE1602268C4
:10445000914202D2A168081AE060022F16D017E03C
:104460002068A8B9A06801F0B7F906460020A0604E
:104470000EE06068FCF799F8216C606808446060A1
:10448000A168884204D32068606001E005B16D1E18
:104490006D1CA5633046BDE8F08110B5044690F868
:1044A000590058B101280CD002280FD0502080F3B9
:1044B0001188BFF34F8FBFF36F8FFEE7206B00F0C3
:1044C00003FC2046BDE8104000F0FEBB10BD00001C
:1044D0000F4842F22831420705D0C01D0C4A20F097
:1044E0000700821A891A0B4A00230144C2E900031B
:1044F0000839183A21F0070111604B600B600B1A64
:10450000C0E9001393604FF0004053605061704762
:10451000580E002090000020144E154CA6F29C4727
:104520004FF08058DFF84C9012E000BF00F098FB8D
:10453000F068C568281D00F037FBA068401EA06029
:104540006068401E606000F0ABFB2846FFF7A5FFE7
:1045500060680028EAD138680128F9D9C9F80080D4
:10456000BFF34F8FBFF36F8FF2E7000060060020AC
:104570002400002004ED00E070B51D46049C51B1FC
:10458000C4F80020C4E90F010121204600F02AFEF2
:1045900084F84C5070BD2460F4E700002DE9F05F12
:1045A0008846DDE90B941546834691009A460A9E9B
:1045B000A522206BFCF73EF86FF00301206B01EBA6
:1045C0008501084420F00707780707D0502080F3C2
:1045D0001188BFF34F8FBFF36F8FFEE70025B8F14F
:1045E000000F0FD05FF00000221818F8001082F8BA
:1045F000341018F8001011B1401C1028F4D384F8BE
:10460000435001E084F83450382E00D33726E66258
:10461000C4E91365201D00F0FCFA04F1180000F055
:10462000F8FA2461C6F138006462A061656584F817
:10463000585052465946384600F05AFA2060B9F1AF
:10464000000F01D0C9F80040BDE8F09F30B5114916
:1046500000E011460A688242FBD34B685C18844232
:1046600003D1406818444860084643681C189442C7
:1046700009D1084C183C2468A24209D052681A4457
:1046800042600A6812680260814200D0086030BD52
:104690000460F9E79000002070B5002441600B4DE4
:1046A0000061914206D8D11A8269914206D2011D59
:1046B000286907E09A4203D2994201D3012403E01A
:1046C000011DE86800F0A8FA204670BD60000020D7
:1046D00010B5044600F0C4FAA06B28B15FF00004E6
:1046E00000F0DEFA204610BD0124F9E730B589B0AC
:1046F0003C4D6EE00498002806DADDE90601059AD3
:1047000090470498002864DB069C606910B1201D66
:1047100000F04AFA03A800F0D7F8024604980A28E5
:1047200057D2DFE800F00505052D334A05052D3386
:1047300094F8280040F0010084F828000599A06949
:10474000059B01442046FFF7A7FF68B3216A204676
:10475000884794F8280040073BD500200090059832
:10476000A169002342181946204601F03FF9D8B943
:10477000502080F31188BFF34F8FBFF36F8FFEE798
:1047800014F8280F20F00100207022E094F828008F
:1047900040F0010084F828000598A06128B1811834
:1047A00013462046FFF778FF13E0502080F311886E
:1047B000BFF34F8FBFF36F8FFEE794F82800810798
:1047C00003D4204600F080FA03E020F0010084F8D2
:1047D0002800002204A9286800F058FE002889D18A
:1047E00009B030BD600000202DE9FC410F460546B0
:1047F00000F000FC01A800F067F80446019818B129
:1048000001F062F8BDE8FC81254EAFB13069006867
:10481000D0B30027291B3A46306800F0D7FA01F0E0
:1048200053F80028EED11F494FF080500860BFF3C5
:104830004F8FBFF36F8FE5E7A542EBD801F044F847
:10484000F0682746C068C468201D00F0ADF994F8F0
:104850002800410719D5A0692B4641193A46204640
:10486000FFF71AFFA8B100200346014600902A4630
:10487000204601F0BBF860B9502080F31188BFF3E7
:104880004F8FBFF36F8FFEE707E020F0010084F841
:104890002800216A20468847B4E70127BAE70000CC
:1048A0006000002004ED00E00648416B096829B172
:1048B000416BC968C9684968816270474FF0FF3130
:1048C000FAE700002400002070B5054600F01AFF4A
:1048D000064E0446B068844203D200F009F8012075
:1048E00000E0002028602046B46070BD6000002019
:1048F000F8B5194D20E0C068C4680668201D00F0B6
:1049000053F9216A2046884794F82800400713D5B8
:10491000A0693044B04206D924616060211DE86876
:1049200000F07AF908E00020034601460090324684
:10493000204601F05BF838B1E86801680029DAD157
:104940002969C5E90310F8BD502080F31188BFF331
:104950004F8FBFF36F8FFEE760000020084840686C
:10496000401C4FF0500080F3118804D0BFF34F8FEC
:10497000BFF36F8FFEE7BFF34F8FBFF36F8FFEE77D
:1049800098000020074CE068016841B1C068002130
:10499000D0F80000FFF728FFFFF7A8FEF3E701219A
:1049A0000020F7E7600000202DE9F041044600F008
:1049B00057F994F9455004F1240609E0606A48B1BA
:1049C000304600F049FF08B100F096FA6D1E6DB256
:1049D000002DF3DC4FF0FF3684F8456000F060F9FD
:1049E00000F03EF994F9445004F1100709E0206901
:1049F00048B1384600F030FF08B100F07DFA6D1E76
:104A00006DB2002DF3DC84F84460BDE8F04100F0A5
:104A100047B900002DE9F0410546002700F0EAFA09
:104A2000324E306808B9FFF753FD706905424ED128
:104A3000C5B3083568070ED005F00700C0F10800BF
:104A40000544680707D0502080F31188BFF34F8FCB
:104A5000BFF36F8FFEE72DB37068854237D82348C8
:104A6000183001460C6801E020460C466168A942F6
:104A700002D221680029F7D131688C4227D007681B
:104A80002168016060680837411B10290FD960193F
:104A9000420708D0502080F31188BFF34F8FBFF337
:104AA0006F8FFEE713E041606560FFF7CFFD61683F
:104AB0007068401A7060B268904200D2B06070694D
:104AC00001430020C4E90001F068401CF06000F0E0
:104AD000FBFE780707D0502080F31188BFF34F8F7B
:104AE000BFF36F8FFEE73846BDE8F0817800002005
:104AF00010B5031F4FF080741C601B1F21F00101D3
:104B00001960191F024B0B60143940380A6010BD40
:104B10005D4900082DE9F04D07460E4601F0FEF90B
:104B200004460D463A46334601F052FADFF86CA0CF
:104B3000DFF86CB01B4B0746884616F0004F4FF06D
:104B400000020AD001F07AF80AD900225B46384602
:104B5000414601F0ADF91BD212E001F06FF808D226
:104B6000002253462046294601F03EFA04460D46EF
:104B70000EE000225B463846414601F099F907D81D
:104B8000002253462046294600F064FF04460D46A5
:104B90003146204665F31E01BDE8F08D0000F03F70
:104BA0000000E03F0000E0BFD0E9013201699A60F7
:104BB000D0E901235A604A68824201D182684A6082
:104BC000002202610868401E086008687047000003
:104BD000034B036003F15C000860802010607047A5
:104BE000A0070020044B036003F15C0008604FF451
:104BF0008070106070470000FC09002000F108017F
:104C00004FF0FF32C0E90112C16001610021016073
:104C1000704700210161704730B50B685A1C02D003
:104C200000F1080202E0026904E0224654682568A7
:104C30009D42FAD953684B6099608A60516008615F
:104C40000168491C016030BD42684A6093688B600E
:104C500093685960916008610168491C0160704760
:104C6000502080F31188BFF34F8FBFF36F8F0A4935
:104C70004868401C486001280CD10848006810F0C2
:104C8000FF0F07D0502080F31188BFF34F8FBFF381
:104C90006F8FFEE7704700009800002004ED00E0F1
:104CA0000849486828B1401E486001D180F3118846
:104CB0007047502080F31188BFF34F8FBFF36F8F81
:104CC000FEE700009800002070B500282AD0164D9D
:104CD000A0F1080460686969084207D1502080F398
:104CE0001188BFF34F8FBFF36F8FFEE722683AB191
:104CF000502080F31188BFF34F8FBFF36F8FFEE713
:104D00008843606000F076F960686968084468600C
:104D10002046FFF79BFC2869401C2861BDE87040D5
:104D200000F0D2BD70BD0000780000204FF0E02000
:104D300000210161816105494FF47A720968B1FB74
:104D4000F2F1491E416107210161704720000020F6
:104D500010B5FBF769FA114910280ED300F1E020D5
:104D600090F8F0030A78904207D2502080F311881F
:104D7000BFF34F8FBFF36F8FFEE709480068896864
:104D800000F4E060884207D9502080F31188BFF317
:104D90004F8FBFF36F8FFEE710BD0000980000201B
:104DA0000CED00E010B5084B002200BF53F8324074
:104DB0001CB1521C082AF9D310BD43F8321003EB82
:104DC000C201486010BD00008401002070B5154686
:104DD0000E460446FFF744FF94F944100020491C96
:104DE00001D184F8440094F94510491C01D184F89C
:104DF0004500FFF755FFA06B28B92A46314604F15C
:104E0000240000F097F82046BDE87040FFF7CCBDC5
:104E100010B5020014D00F48006B38B1502080F359
:104E20001188BFF34F8FBFF36F8FFEE700F0E2F8FA
:104E300000211046FFF726FA00F046FD002807D1B2
:104E400005494FF080500860BFF34F8FBFF36F8F5D
:104E500010BD00002400002004ED00E070B50D46F8
:104E600004000BD095B11E4A106BB8B1502080F3EE
:104E70001188BFF34F8FBFF36F8FFEE7502080F391
:104E80001188BFF34F8FBFF36F8FFEE7502080F381
:104E90001188BFF34F8FBFF36F8FFEE700F0AAF8C2
:104EA000D26823685919934204D98B420AD9914296
:104EB00002D807E08B42FAD9881A21600021FFF757
:104EC000E1F900E0216000F0FFFC002807D105496E
:104ED0004FF080500860BFF34F8FBFF36F8F70BDEE
:104EE0002400002004ED00E002490A6A0260C9685B
:104EF000416070472400002001490120C8617047CB
:104F00002400002010B50C4650B109490968183139
:104F1000FFF782FE2046BDE810400121FFF7B2B93D
:104F2000502080F31188BFF34F8FBFF36F8FFEE7E0
:104F30002400002070B514460D4668B10A4909687E
:104F40001831FFF781FE0CB14FF0FF35214628469E
:104F5000BDE87040FFF796B9502080F31188BFF389
:104F60004F8FBFF36F8FFEE72400002030B587B06E
:104F70000024039405AA04A903A80494FFF728FEBB
:104F8000DDE903010094CDE90110002315A11748C4
:104F9000059A00F07EFB164D0028E8621FD000F055
:104FA000F5FC012809D0401C19D1502080F311884C
:104FB000BFF34F8FBFF36F8FFEE7502080F3118850
:104FC000BFF34F8FBFF36F8F4FF0FF30A862012008
:104FD0006861EC6007B0BDE8304000F045B807B04C
:104FE00030BD000049444C45000000001945000850
:104FF000240000200248016B491C01637047000037
:1050000024000020164810B5016B11B10121C161C7
:1050100010BD0021C1610169124A01E0B9B1491E08
:1050200001EB810352F82330002BF7D001EB810311
:1050300002EB830202F1080453685B685360A342E9
:1050400001D15B685360DA680260016110BD5020D5
:1050500080F31188BFF34F8FBFF36F8FFEE700001F
:1050600024000020C40100201CB5264908780190C6
:10507000FF20087008788DF800009DF800009DF86A
:10508000002000F0F000904207D0502080F31188FB
:10509000BFF34F8FBFF36F8FFEE79DF800001A4CF0
:1050A00000F0500020700720A06005E09DF800206F
:1050B00052008DF80020401E9DF800201206F5D405
:1050C000A060032807D0502080F31188BFF34F8FD2
:1050D000BFF36F8FFEE74FF44070A0600198087037
:1050E0000A48016841F470010160016841F07041B3
:1050F0000160FFF71BFE00206060FBF75FF80020F7
:105100001CBD000000E400E09800002020ED00E05D
:1051100010B5502080F31188BFF34F8FBFF36F8F0E
:1051200000F0F6FA18B104494FF0805008600020F2
:1051300080F3118810BD000004ED00E0F8B51746BB
:105140000E46050013D005FB06F05030FFF762FC59
:1051500004000AD0002084F8460004F150023B46C7
:10516000314628460094FFF707FA2046F8BD502044
:1051700080F31188BFF34F8FBFF36F8FFEE738B511
:10518000049D18B153B1CAB181B120E0502080F321
:105190001188BFF34F8FBFF36F8FFEE7502080F36E
:1051A0001188BFF34F8FBFF36F8FFEE7502080F35E
:1051B0001188BFF34F8FBFF36F8FFEE739B15020D7
:1051C00080F31188BFF34F8FBFF36F8FFEE750243A
:1051D0001C46012384F846302B460094FFF7CCF997
:1051E000204638BD70B50D46040025D0FFF738FDC8
:1051F000D4E90F20216802FB0011A1600021A16306
:10520000216861600A46D4E90F01401E00FB0121BC
:10521000E16021464FF0FF3001F8440F487004F17F
:1052200010008DB1FFF7EAFC04F12400FFF7E6FC63
:10523000FFF736FD012070BD502080F31188BFF3C9
:105240004F8FBFF36F8FFEE721690029F0D000F088
:1052500003FB0028ECD004494FF080500860BFF3F6
:105260004F8FBFF36F8FE3E704ED00E02DE9FF47B9
:1052700082B01D468A464FF00008040003D0BAF100
:10528000000F08D011E0502080F31188BFF34F8F3A
:10529000BFF36F8FFEE7206C38B1502080F3118888
:1052A000BFF34F8FBFF36F8FFEE7022D0AD1E06B84
:1052B000012807D0502080F31188BFF34F8FBFF330
:1052C0006F8FFEE700F010FA3F4F4FF000094FF0EC
:1052D000805648B9049838B1502080F31188BFF344
:1052E0004F8FBFF36F8FFEE7FFF7BAFCA06BE16B48
:1052F000884207D3022D05D00498D0B1B8F1000F31
:105300001AD01EE02A4651462046FFF790F8616AFF
:1053100019B104F1240000F09FFA20B13E60BFF300
:105320004F8FBFF36F8FFFF7BBFC012006B0BDE8C6
:10533000F087FFF7B5FC22E06846FFF7D5FD4FF098
:105340000108FFF7ADFCFFF755FEFFF789FC94F964
:105350004400401C01D184F8449094F94500401C5D
:1053600001D184F84590FFF79BFC04A9684600F042
:1053700029F930B12046FFF717FB00F0A5FA00200D
:10538000D4E7FFF76DFCA06BE16B884213D1FFF708
:1053900087FC04F110000499FFF7B4FD2046FFF7E5
:1053A00003FB00F091FA00289ED13E60BFF34F8FBF
:1053B000BFF36F8F98E7FFF773FC2046FFF7F4FA0F
:1053C00000F082FA90E7000004ED00E02DE9F047DC
:1053D0001F4690468946040003D0B9F1000F08D05B
:1053E00011E0502080F31188BFF34F8FBFF36F8F10
:1053F000FEE7206C38B1502080F31188BFF34F8F47
:10540000BFF36F8FFEE7022F0AD1E06B012807D0B0
:10541000502080F31188BFF34F8FBFF36F8FFEE7EB
:10542000FFF796FC5020EFF3118680F31188BFF34D
:105430004F8FBFF36F8FA06BE16B884206D3022FB3
:1054400004D0002086F31188BDE8F08794F9455018
:10545000A06B3A4649462046FEF7E9FF681C04D097
:105460006D1C84F845500120ECE7606A0028FAD0F2
:1054700004F1240000F0F0F90028F4D0B8F1000F96
:10548000F1D00121C8F80010EDE700002DE9F74741
:10549000002683B08A46040003D0BAF1000F08D07A
:1054A00011E0502080F31188BFF34F8FBFF36F8F4F
:1054B000FEE7206C38B1502080F31188BFF34F8F86
:1054C000BFF36F8FFEE700F00FF9DFF8F4804FF0C5
:1054D00000094FF0805748B9059838B1502080F343
:1054E0001188BFF34F8FBFF36F8FFEE7FFF7B8FB55
:1054F000A56BC5B151462046FEF786FF6D1EA5631C
:10550000206950B104F1100000F0A6F928B1C8F8E4
:105510000070BFF34F8FBFF36F8FFFF7C1FB012008
:1055200006B0BDE8F087059808B11EB106E0FFF7A8
:10553000B7FB27E06846FFF7D7FC0126FFF7B0FB73
:10554000FFF758FDFFF78CFB94F94400401C01D194
:1055500084F8449094F94500401C01D184F84590AA
:10556000FFF79EFB05A9684600F02CF800282046AE
:105570000AD0FFF719FA00F0A7F92046FFF7A8F8BC
:105580000028B3D00020CBE7FFF7A2F890B104F1D8
:1055900024000599FFF7B6FC2046FFF705FA00F056
:1055A00093F90028A2D1C8F80070BFF34F8FBFF362
:1055B0006F8F9BE72046FFF7F7F900F085F995E735
:1055C00004ED00E02DE9F0410C46050011D0C4B116
:1055D000FFF746FB174BDA686E682068911B471C83
:1055E00017D02F681B6A9F4219D0964217D8012402
:1055F00010E0502080F31188BFF34F8FBFF36F8FFF
:10560000FEE7502080F31188BFF34F8FBFF36F8FF9
:10561000FEE70024FFF744FB2046BDE8F081884206
:1056200005D9401A20602846FFF75EFCF1E700200C
:105630002060DCE7240000202DE9FF5F8346DDE9E0
:105640000E87994616468A469000FFF7E3F9050053
:105650001CD05C20FFF7DEF9040014D00020256385
:1056600084F85900CDE90240CDE900874B46324627
:1056700051465846FEF792FF2046FEF731FE0120C4
:1056800004B0BDE8F09F2846FFF71EFB4FF0FF3047
:10569000F6E7F0B585B0DDE90B640A9DA6B1DCB193
:1056A0005C2700972663022684F85960002604AF21
:1056B000CDE90246CDE90057FEF770FF2046FEF720
:1056C0000FFE049805B0F0BD502080F31188BFF3A1
:1056D0004F8FBFF36F8FFEE7502080F31188BFF329
:1056E0004F8FBFF36F8FFEE70548416919B1006B1B
:1056F00018B1002070470120704702207047000059
:10570000240000200148C0687047000024000020E9
:105710002DE9F0412E4C0027206B28B1A069401CD8
:10572000A0613846BDE8F081E668761CE66013D1DA
:10573000606B006838B1502080F31188BFF34F8F41
:10574000BFF36F8FFEE7606BA16B6163A063206A9C
:10575000401C2062FFF7A8F8A06ADFF87880864234
:1057600009D3606B0068A0B1606BC068C5686868E9
:10577000864211D2A0622068C06A00EB800158F80E
:105780002100012800D90127E0690028C9D001279C
:10579000C7E74FF0FF30EDE7281DFFF705FAA86ACD
:1057A00018B105F11800FFF7FFF9E86A216988428E
:1057B00000D9206100EB800108EB8100291DFFF773
:1057C00043FAE86A2168C96A8842CAD30127C8E750
:1057D00024000020C401002070B504004FF0000137
:1057E00033D01B4D2868844207D0502080F31188A5
:1057F000BFF34F8FBFF36F8FFEE7206D38B1401EB0
:105800002065E36CE26A9A421FD040B11DE050204F
:1058100080F31188BFF34F8FBFF36F8FFEE7201D1A
:10582000FFF7C2F9E06CE062C0F13800A061E06A05
:105830002969884200D92861064900EB800001EB04
:105840008000211DFFF700FA0121084670BD00000D
:1058500024000020C401002070B5C068C46854B1A1
:1058600004F118000646FFF79FF9144D286B50B15C
:105870003146134815E0502080F31188BFF34F8F55
:10588000BFF36F8FFEE7201DFFF78EF9E06A2969ED
:10589000884200D928610B4900EB800001EB8000B1
:1058A000211DFFF7D1F9E06A2968C96A884202D947
:1058B0000120E86170BD002070BD000024000020C0
:1058C0004C060020C40100202DE9F0472C4D002497
:1058D0002746286B38B1FFF7C3F9286B401E2863B1
:1058E000286B40B146E0502080F31188BFF34F8F02
:1058F000BFF36F8FFEE7A968224E0120D1B3A6F552
:10590000916980463068E0B1F068C46804F118001D
:10591000FFF74AF9201DFFF747F9E06A2969884235
:1059200000D9286100EB800109EB8100211DFFF700
:105930008BF9E06A2968C96A8842E3D3C5F81C80FC
:10594000E0E70CB1FEF7B0FFAC694CB14FEA0806D6
:10595000FFF7DEFE00B1EE61641EF9D10020A86100
:10596000E86938B10849012738070860BFF34F8F4D
:10597000BFF36F8FFFF794F93846BDE8F08700005A
:10598000240000204C06002004ED00E010B586B095
:10599000FEF70EFD114C2068B8B100200390049072
:1059A00005AA04A903A8FFF71DF9DDE903210220D8
:1059B0008DE8070000230AA10B48059AFFF769FE4E
:1059C000606010B106B0012010BD502080F3118836
:1059D000BFF34F8FBFF36F8FFEE700006000002022
:1059E000546D722053766300854900082DE9FF410C
:1059F0001E46134602000A9D4FF0000016D0144CBC
:105A00002768002F0FD0CDE900130292062917DA7C
:105A1000FFF76AFE02284FF000030FD0002269460C
:105A20002068FFF723FC04B0BDE8F081502080F32C
:105A30001188BFF34F8FBFF36F8FFEE72A46EEE763
:105A40000023324669463846FFF7C0FCEBE700000A
:105A50006000002010B591EA030F48BF83F00043B7
:105A600000F1CA82841A71EB030C05D2121943EBC0
:105A70000C03001B61EB0C01DFF824E14FEA115429
:105A8000A4EB135C1EEA430F18BF9EEA445F73D079
:105A900023EA0E03DCF1200E21EA045143F48013C3
:105AA00032D322FA0CFE10EB0E0023FA0CFE41EB6F
:105AB0000E01CCF1200E03FA0EFE10EB0E0051F198
:105AC0000001B1F5801FCCF1200E32D201EB045160
:105AD00012FA0EF2BDE8104058BF7047401C38BFA4
